{
  "contractName": "paciente_v2",
  "abi": [
    {
      "inputs": [
        {
          "internalType": "uint256",
          "name": "",
          "type": "uint256"
        }
      ],
      "name": "pacientes",
      "outputs": [
        {
          "components": [
            {
              "internalType": "string",
              "name": "code",
              "type": "string"
            },
            {
              "internalType": "string",
              "name": "display",
              "type": "string"
            },
            {
              "internalType": "string",
              "name": "system",
              "type": "string"
            }
          ],
          "internalType": "struct Code",
          "name": "identidadDeGenero",
          "type": "tuple"
        },
        {
          "components": [
            {
              "internalType": "string",
              "name": "code",
              "type": "string"
            },
            {
              "internalType": "string",
              "name": "display",
              "type": "string"
            },
            {
              "internalType": "string",
              "name": "definition",
              "type": "string"
            }
          ],
          "internalType": "struct Coding",
          "name": "sexoBiologico",
          "type": "tuple"
        },
        {
          "components": [
            {
              "internalType": "string",
              "name": "url",
              "type": "string"
            },
            {
              "components": [
                {
                  "components": [
                    {
                      "internalType": "string",
                      "name": "code",
                      "type": "string"
                    },
                    {
                      "internalType": "string",
                      "name": "display",
                      "type": "string"
                    },
                    {
                      "internalType": "string",
                      "name": "system",
                      "type": "string"
                    }
                  ],
                  "internalType": "struct Code",
                  "name": "coding",
                  "type": "tuple"
                }
              ],
              "internalType": "struct Value",
              "name": "Value",
              "type": "tuple"
            }
          ],
          "internalType": "struct Nacionalidad",
          "name": "nacionalidad",
          "type": "tuple"
        },
        {
          "components": [
            {
              "internalType": "string",
              "name": "use",
              "type": "string"
            },
            {
              "components": [
                {
                  "components": [
                    {
                      "internalType": "string",
                      "name": "code",
                      "type": "string"
                    },
                    {
                      "internalType": "string",
                      "name": "display",
                      "type": "string"
                    },
                    {
                      "internalType": "string",
                      "name": "definition",
                      "type": "string"
                    }
                  ],
                  "internalType": "struct Coding",
                  "name": "paises",
                  "type": "tuple"
                },
                {
                  "components": [
                    {
                      "internalType": "string",
                      "name": "code",
                      "type": "string"
                    },
                    {
                      "internalType": "string",
                      "name": "display",
                      "type": "string"
                    },
                    {
                      "internalType": "string",
                      "name": "definition",
                      "type": "string"
                    }
                  ],
                  "internalType": "struct Coding",
                  "name": "coding",
                  "type": "tuple"
                }
              ],
              "internalType": "struct Type",
              "name": "paises",
              "type": "tuple"
            },
            {
              "internalType": "string",
              "name": "value",
              "type": "string"
            }
          ],
          "internalType": "struct Identifier",
          "name": "identifier",
          "type": "tuple"
        },
        {
          "components": [
            {
              "internalType": "string",
              "name": "use",
              "type": "string"
            },
            {
              "components": [
                {
                  "internalType": "string",
                  "name": "segundoApellido",
                  "type": "string"
                }
              ],
              "internalType": "struct Family",
              "name": "family",
              "type": "tuple"
            },
            {
              "internalType": "string",
              "name": "given",
              "type": "string"
            }
          ],
          "internalType": "struct NombreOficial",
          "name": "nombreOficial",
          "type": "tuple"
        },
        {
          "components": [
            {
              "internalType": "string",
              "name": "use",
              "type": "string"
            },
            {
              "internalType": "string",
              "name": "given",
              "type": "string"
            }
          ],
          "internalType": "struct NombreSocial",
          "name": "nombreSocial",
          "type": "tuple"
        },
        {
          "components": [
            {
              "components": [
                {
                  "internalType": "string",
                  "name": "code",
                  "type": "string"
                },
                {
                  "internalType": "string",
                  "name": "display",
                  "type": "string"
                },
                {
                  "internalType": "string",
                  "name": "system",
                  "type": "string"
                }
              ],
              "internalType": "struct Code",
              "name": "system",
              "type": "tuple"
            },
            {
              "internalType": "string",
              "name": "value",
              "type": "string"
            },
            {
              "components": [
                {
                  "internalType": "string",
                  "name": "code",
                  "type": "string"
                },
                {
                  "internalType": "string",
                  "name": "display",
                  "type": "string"
                },
                {
                  "internalType": "string",
                  "name": "system",
                  "type": "string"
                }
              ],
              "internalType": "struct Code",
              "name": "use",
              "type": "tuple"
            }
          ],
          "internalType": "struct Telecom",
          "name": "telecom",
          "type": "tuple"
        },
        {
          "internalType": "string",
          "name": "birthDate",
          "type": "string"
        },
        {
          "components": [
            {
              "components": [
                {
                  "internalType": "string",
                  "name": "code",
                  "type": "string"
                },
                {
                  "internalType": "string",
                  "name": "display",
                  "type": "string"
                },
                {
                  "internalType": "string",
                  "name": "system",
                  "type": "string"
                }
              ],
              "internalType": "struct Code",
              "name": "country",
              "type": "tuple"
            },
            {
              "internalType": "string",
              "name": "city",
              "type": "string"
            },
            {
              "internalType": "string",
              "name": "street",
              "type": "string"
            },
            {
              "internalType": "string",
              "name": "postalCode",
              "type": "string"
            },
            {
              "internalType": "string",
              "name": "number",
              "type": "string"
            }
          ],
          "internalType": "struct PatientAddress",
          "name": "patientAddress",
          "type": "tuple"
        },
        {
          "components": [
            {
              "internalType": "string",
              "name": "IdContacto",
              "type": "string"
            },
            {
              "components": [
                {
                  "internalType": "string",
                  "name": "code",
                  "type": "string"
                },
                {
                  "internalType": "string",
                  "name": "display",
                  "type": "string"
                },
                {
                  "internalType": "string",
                  "name": "definition",
                  "type": "string"
                }
              ],
              "internalType": "struct Coding",
              "name": "relationship",
              "type": "tuple"
            },
            {
              "components": [
                {
                  "internalType": "string",
                  "name": "use",
                  "type": "string"
                },
                {
                  "components": [
                    {
                      "internalType": "string",
                      "name": "segundoApellido",
                      "type": "string"
                    }
                  ],
                  "internalType": "struct Family",
                  "name": "family",
                  "type": "tuple"
                },
                {
                  "internalType": "string",
                  "name": "given",
                  "type": "string"
                }
              ],
              "internalType": "struct Name",
              "name": "name",
              "type": "tuple"
            }
          ],
          "internalType": "struct Contact",
          "name": "contact",
          "type": "tuple"
        },
        {
          "components": [
            {
              "components": [
                {
                  "components": [
                    {
                      "internalType": "string",
                      "name": "code",
                      "type": "string"
                    },
                    {
                      "internalType": "string",
                      "name": "display",
                      "type": "string"
                    },
                    {
                      "internalType": "string",
                      "name": "definition",
                      "type": "string"
                    }
                  ],
                  "internalType": "struct Coding",
                  "name": "coding",
                  "type": "tuple"
                }
              ],
              "internalType": "struct Lenguage",
              "name": "lenguage",
              "type": "tuple"
            }
          ],
          "internalType": "struct Communication",
          "name": "communication",
          "type": "tuple"
        },
        {
          "components": [
            {
              "internalType": "string",
              "name": "id",
              "type": "string"
            },
            {
              "internalType": "string",
              "name": "Reference",
              "type": "string"
            },
            {
              "internalType": "string",
              "name": "display",
              "type": "string"
            }
          ],
          "internalType": "struct GeneralPractitioner",
          "name": "generalPractitioner",
          "type": "tuple"
        }
      ],
      "stateMutability": "view",
      "type": "function",
      "constant": true
    },
    {
      "inputs": [
        {
          "internalType": "address",
          "name": "",
          "type": "address"
        }
      ],
      "name": "patientDataToAddress",
      "outputs": [
        {
          "components": [
            {
              "internalType": "string",
              "name": "code",
              "type": "string"
            },
            {
              "internalType": "string",
              "name": "display",
              "type": "string"
            },
            {
              "internalType": "string",
              "name": "system",
              "type": "string"
            }
          ],
          "internalType": "struct Code",
          "name": "identidadDeGenero",
          "type": "tuple"
        },
        {
          "components": [
            {
              "internalType": "string",
              "name": "code",
              "type": "string"
            },
            {
              "internalType": "string",
              "name": "display",
              "type": "string"
            },
            {
              "internalType": "string",
              "name": "definition",
              "type": "string"
            }
          ],
          "internalType": "struct Coding",
          "name": "sexoBiologico",
          "type": "tuple"
        },
        {
          "components": [
            {
              "internalType": "string",
              "name": "url",
              "type": "string"
            },
            {
              "components": [
                {
                  "components": [
                    {
                      "internalType": "string",
                      "name": "code",
                      "type": "string"
                    },
                    {
                      "internalType": "string",
                      "name": "display",
                      "type": "string"
                    },
                    {
                      "internalType": "string",
                      "name": "system",
                      "type": "string"
                    }
                  ],
                  "internalType": "struct Code",
                  "name": "coding",
                  "type": "tuple"
                }
              ],
              "internalType": "struct Value",
              "name": "Value",
              "type": "tuple"
            }
          ],
          "internalType": "struct Nacionalidad",
          "name": "nacionalidad",
          "type": "tuple"
        },
        {
          "components": [
            {
              "internalType": "string",
              "name": "use",
              "type": "string"
            },
            {
              "components": [
                {
                  "components": [
                    {
                      "internalType": "string",
                      "name": "code",
                      "type": "string"
                    },
                    {
                      "internalType": "string",
                      "name": "display",
                      "type": "string"
                    },
                    {
                      "internalType": "string",
                      "name": "definition",
                      "type": "string"
                    }
                  ],
                  "internalType": "struct Coding",
                  "name": "paises",
                  "type": "tuple"
                },
                {
                  "components": [
                    {
                      "internalType": "string",
                      "name": "code",
                      "type": "string"
                    },
                    {
                      "internalType": "string",
                      "name": "display",
                      "type": "string"
                    },
                    {
                      "internalType": "string",
                      "name": "definition",
                      "type": "string"
                    }
                  ],
                  "internalType": "struct Coding",
                  "name": "coding",
                  "type": "tuple"
                }
              ],
              "internalType": "struct Type",
              "name": "paises",
              "type": "tuple"
            },
            {
              "internalType": "string",
              "name": "value",
              "type": "string"
            }
          ],
          "internalType": "struct Identifier",
          "name": "identifier",
          "type": "tuple"
        },
        {
          "components": [
            {
              "internalType": "string",
              "name": "use",
              "type": "string"
            },
            {
              "components": [
                {
                  "internalType": "string",
                  "name": "segundoApellido",
                  "type": "string"
                }
              ],
              "internalType": "struct Family",
              "name": "family",
              "type": "tuple"
            },
            {
              "internalType": "string",
              "name": "given",
              "type": "string"
            }
          ],
          "internalType": "struct NombreOficial",
          "name": "nombreOficial",
          "type": "tuple"
        },
        {
          "components": [
            {
              "internalType": "string",
              "name": "use",
              "type": "string"
            },
            {
              "internalType": "string",
              "name": "given",
              "type": "string"
            }
          ],
          "internalType": "struct NombreSocial",
          "name": "nombreSocial",
          "type": "tuple"
        },
        {
          "components": [
            {
              "components": [
                {
                  "internalType": "string",
                  "name": "code",
                  "type": "string"
                },
                {
                  "internalType": "string",
                  "name": "display",
                  "type": "string"
                },
                {
                  "internalType": "string",
                  "name": "system",
                  "type": "string"
                }
              ],
              "internalType": "struct Code",
              "name": "system",
              "type": "tuple"
            },
            {
              "internalType": "string",
              "name": "value",
              "type": "string"
            },
            {
              "components": [
                {
                  "internalType": "string",
                  "name": "code",
                  "type": "string"
                },
                {
                  "internalType": "string",
                  "name": "display",
                  "type": "string"
                },
                {
                  "internalType": "string",
                  "name": "system",
                  "type": "string"
                }
              ],
              "internalType": "struct Code",
              "name": "use",
              "type": "tuple"
            }
          ],
          "internalType": "struct Telecom",
          "name": "telecom",
          "type": "tuple"
        },
        {
          "internalType": "string",
          "name": "birthDate",
          "type": "string"
        },
        {
          "components": [
            {
              "components": [
                {
                  "internalType": "string",
                  "name": "code",
                  "type": "string"
                },
                {
                  "internalType": "string",
                  "name": "display",
                  "type": "string"
                },
                {
                  "internalType": "string",
                  "name": "system",
                  "type": "string"
                }
              ],
              "internalType": "struct Code",
              "name": "country",
              "type": "tuple"
            },
            {
              "internalType": "string",
              "name": "city",
              "type": "string"
            },
            {
              "internalType": "string",
              "name": "street",
              "type": "string"
            },
            {
              "internalType": "string",
              "name": "postalCode",
              "type": "string"
            },
            {
              "internalType": "string",
              "name": "number",
              "type": "string"
            }
          ],
          "internalType": "struct PatientAddress",
          "name": "patientAddress",
          "type": "tuple"
        },
        {
          "components": [
            {
              "internalType": "string",
              "name": "IdContacto",
              "type": "string"
            },
            {
              "components": [
                {
                  "internalType": "string",
                  "name": "code",
                  "type": "string"
                },
                {
                  "internalType": "string",
                  "name": "display",
                  "type": "string"
                },
                {
                  "internalType": "string",
                  "name": "definition",
                  "type": "string"
                }
              ],
              "internalType": "struct Coding",
              "name": "relationship",
              "type": "tuple"
            },
            {
              "components": [
                {
                  "internalType": "string",
                  "name": "use",
                  "type": "string"
                },
                {
                  "components": [
                    {
                      "internalType": "string",
                      "name": "segundoApellido",
                      "type": "string"
                    }
                  ],
                  "internalType": "struct Family",
                  "name": "family",
                  "type": "tuple"
                },
                {
                  "internalType": "string",
                  "name": "given",
                  "type": "string"
                }
              ],
              "internalType": "struct Name",
              "name": "name",
              "type": "tuple"
            }
          ],
          "internalType": "struct Contact",
          "name": "contact",
          "type": "tuple"
        },
        {
          "components": [
            {
              "components": [
                {
                  "components": [
                    {
                      "internalType": "string",
                      "name": "code",
                      "type": "string"
                    },
                    {
                      "internalType": "string",
                      "name": "display",
                      "type": "string"
                    },
                    {
                      "internalType": "string",
                      "name": "definition",
                      "type": "string"
                    }
                  ],
                  "internalType": "struct Coding",
                  "name": "coding",
                  "type": "tuple"
                }
              ],
              "internalType": "struct Lenguage",
              "name": "lenguage",
              "type": "tuple"
            }
          ],
          "internalType": "struct Communication",
          "name": "communication",
          "type": "tuple"
        },
        {
          "components": [
            {
              "internalType": "string",
              "name": "id",
              "type": "string"
            },
            {
              "internalType": "string",
              "name": "Reference",
              "type": "string"
            },
            {
              "internalType": "string",
              "name": "display",
              "type": "string"
            }
          ],
          "internalType": "struct GeneralPractitioner",
          "name": "generalPractitioner",
          "type": "tuple"
        }
      ],
      "stateMutability": "view",
      "type": "function",
      "constant": true
    },
    {
      "inputs": [
        {
          "components": [
            {
              "components": [
                {
                  "internalType": "string",
                  "name": "code",
                  "type": "string"
                },
                {
                  "internalType": "string",
                  "name": "display",
                  "type": "string"
                },
                {
                  "internalType": "string",
                  "name": "system",
                  "type": "string"
                }
              ],
              "internalType": "struct Code",
              "name": "identidadDeGenero",
              "type": "tuple"
            },
            {
              "components": [
                {
                  "internalType": "string",
                  "name": "code",
                  "type": "string"
                },
                {
                  "internalType": "string",
                  "name": "display",
                  "type": "string"
                },
                {
                  "internalType": "string",
                  "name": "definition",
                  "type": "string"
                }
              ],
              "internalType": "struct Coding",
              "name": "sexoBiologico",
              "type": "tuple"
            },
            {
              "components": [
                {
                  "internalType": "string",
                  "name": "url",
                  "type": "string"
                },
                {
                  "components": [
                    {
                      "components": [
                        {
                          "internalType": "string",
                          "name": "code",
                          "type": "string"
                        },
                        {
                          "internalType": "string",
                          "name": "display",
                          "type": "string"
                        },
                        {
                          "internalType": "string",
                          "name": "system",
                          "type": "string"
                        }
                      ],
                      "internalType": "struct Code",
                      "name": "coding",
                      "type": "tuple"
                    }
                  ],
                  "internalType": "struct Value",
                  "name": "Value",
                  "type": "tuple"
                }
              ],
              "internalType": "struct Nacionalidad",
              "name": "nacionalidad",
              "type": "tuple"
            },
            {
              "components": [
                {
                  "internalType": "string",
                  "name": "use",
                  "type": "string"
                },
                {
                  "components": [
                    {
                      "components": [
                        {
                          "internalType": "string",
                          "name": "code",
                          "type": "string"
                        },
                        {
                          "internalType": "string",
                          "name": "display",
                          "type": "string"
                        },
                        {
                          "internalType": "string",
                          "name": "definition",
                          "type": "string"
                        }
                      ],
                      "internalType": "struct Coding",
                      "name": "paises",
                      "type": "tuple"
                    },
                    {
                      "components": [
                        {
                          "internalType": "string",
                          "name": "code",
                          "type": "string"
                        },
                        {
                          "internalType": "string",
                          "name": "display",
                          "type": "string"
                        },
                        {
                          "internalType": "string",
                          "name": "definition",
                          "type": "string"
                        }
                      ],
                      "internalType": "struct Coding",
                      "name": "coding",
                      "type": "tuple"
                    }
                  ],
                  "internalType": "struct Type",
                  "name": "paises",
                  "type": "tuple"
                },
                {
                  "internalType": "string",
                  "name": "value",
                  "type": "string"
                }
              ],
              "internalType": "struct Identifier",
              "name": "identifier",
              "type": "tuple"
            },
            {
              "components": [
                {
                  "internalType": "string",
                  "name": "use",
                  "type": "string"
                },
                {
                  "components": [
                    {
                      "internalType": "string",
                      "name": "segundoApellido",
                      "type": "string"
                    }
                  ],
                  "internalType": "struct Family",
                  "name": "family",
                  "type": "tuple"
                },
                {
                  "internalType": "string",
                  "name": "given",
                  "type": "string"
                }
              ],
              "internalType": "struct NombreOficial",
              "name": "nombreOficial",
              "type": "tuple"
            },
            {
              "components": [
                {
                  "internalType": "string",
                  "name": "use",
                  "type": "string"
                },
                {
                  "internalType": "string",
                  "name": "given",
                  "type": "string"
                }
              ],
              "internalType": "struct NombreSocial",
              "name": "nombreSocial",
              "type": "tuple"
            },
            {
              "components": [
                {
                  "components": [
                    {
                      "internalType": "string",
                      "name": "code",
                      "type": "string"
                    },
                    {
                      "internalType": "string",
                      "name": "display",
                      "type": "string"
                    },
                    {
                      "internalType": "string",
                      "name": "system",
                      "type": "string"
                    }
                  ],
                  "internalType": "struct Code",
                  "name": "system",
                  "type": "tuple"
                },
                {
                  "internalType": "string",
                  "name": "value",
                  "type": "string"
                },
                {
                  "components": [
                    {
                      "internalType": "string",
                      "name": "code",
                      "type": "string"
                    },
                    {
                      "internalType": "string",
                      "name": "display",
                      "type": "string"
                    },
                    {
                      "internalType": "string",
                      "name": "system",
                      "type": "string"
                    }
                  ],
                  "internalType": "struct Code",
                  "name": "use",
                  "type": "tuple"
                }
              ],
              "internalType": "struct Telecom",
              "name": "telecom",
              "type": "tuple"
            },
            {
              "internalType": "string",
              "name": "birthDate",
              "type": "string"
            },
            {
              "components": [
                {
                  "components": [
                    {
                      "internalType": "string",
                      "name": "code",
                      "type": "string"
                    },
                    {
                      "internalType": "string",
                      "name": "display",
                      "type": "string"
                    },
                    {
                      "internalType": "string",
                      "name": "system",
                      "type": "string"
                    }
                  ],
                  "internalType": "struct Code",
                  "name": "country",
                  "type": "tuple"
                },
                {
                  "internalType": "string",
                  "name": "city",
                  "type": "string"
                },
                {
                  "internalType": "string",
                  "name": "street",
                  "type": "string"
                },
                {
                  "internalType": "string",
                  "name": "postalCode",
                  "type": "string"
                },
                {
                  "internalType": "string",
                  "name": "number",
                  "type": "string"
                }
              ],
              "internalType": "struct PatientAddress",
              "name": "patientAddress",
              "type": "tuple"
            },
            {
              "components": [
                {
                  "internalType": "string",
                  "name": "IdContacto",
                  "type": "string"
                },
                {
                  "components": [
                    {
                      "internalType": "string",
                      "name": "code",
                      "type": "string"
                    },
                    {
                      "internalType": "string",
                      "name": "display",
                      "type": "string"
                    },
                    {
                      "internalType": "string",
                      "name": "definition",
                      "type": "string"
                    }
                  ],
                  "internalType": "struct Coding",
                  "name": "relationship",
                  "type": "tuple"
                },
                {
                  "components": [
                    {
                      "internalType": "string",
                      "name": "use",
                      "type": "string"
                    },
                    {
                      "components": [
                        {
                          "internalType": "string",
                          "name": "segundoApellido",
                          "type": "string"
                        }
                      ],
                      "internalType": "struct Family",
                      "name": "family",
                      "type": "tuple"
                    },
                    {
                      "internalType": "string",
                      "name": "given",
                      "type": "string"
                    }
                  ],
                  "internalType": "struct Name",
                  "name": "name",
                  "type": "tuple"
                }
              ],
              "internalType": "struct Contact",
              "name": "contact",
              "type": "tuple"
            },
            {
              "components": [
                {
                  "components": [
                    {
                      "components": [
                        {
                          "internalType": "string",
                          "name": "code",
                          "type": "string"
                        },
                        {
                          "internalType": "string",
                          "name": "display",
                          "type": "string"
                        },
                        {
                          "internalType": "string",
                          "name": "definition",
                          "type": "string"
                        }
                      ],
                      "internalType": "struct Coding",
                      "name": "coding",
                      "type": "tuple"
                    }
                  ],
                  "internalType": "struct Lenguage",
                  "name": "lenguage",
                  "type": "tuple"
                }
              ],
              "internalType": "struct Communication",
              "name": "communication",
              "type": "tuple"
            },
            {
              "components": [
                {
                  "internalType": "string",
                  "name": "id",
                  "type": "string"
                },
                {
                  "internalType": "string",
                  "name": "Reference",
                  "type": "string"
                },
                {
                  "internalType": "string",
                  "name": "display",
                  "type": "string"
                }
              ],
              "internalType": "struct GeneralPractitioner",
              "name": "generalPractitioner",
              "type": "tuple"
            }
          ],
          "internalType": "struct patientData",
          "name": "_patientData",
          "type": "tuple"
        }
      ],
      "name": "updatePatientData",
      "outputs": [],
      "stateMutability": "nonpayable",
      "type": "function"
    },
    {
      "inputs": [],
      "name": "getPatientData",
      "outputs": [
        {
          "components": [
            {
              "components": [
                {
                  "internalType": "string",
                  "name": "code",
                  "type": "string"
                },
                {
                  "internalType": "string",
                  "name": "display",
                  "type": "string"
                },
                {
                  "internalType": "string",
                  "name": "system",
                  "type": "string"
                }
              ],
              "internalType": "struct Code",
              "name": "identidadDeGenero",
              "type": "tuple"
            },
            {
              "components": [
                {
                  "internalType": "string",
                  "name": "code",
                  "type": "string"
                },
                {
                  "internalType": "string",
                  "name": "display",
                  "type": "string"
                },
                {
                  "internalType": "string",
                  "name": "definition",
                  "type": "string"
                }
              ],
              "internalType": "struct Coding",
              "name": "sexoBiologico",
              "type": "tuple"
            },
            {
              "components": [
                {
                  "internalType": "string",
                  "name": "url",
                  "type": "string"
                },
                {
                  "components": [
                    {
                      "components": [
                        {
                          "internalType": "string",
                          "name": "code",
                          "type": "string"
                        },
                        {
                          "internalType": "string",
                          "name": "display",
                          "type": "string"
                        },
                        {
                          "internalType": "string",
                          "name": "system",
                          "type": "string"
                        }
                      ],
                      "internalType": "struct Code",
                      "name": "coding",
                      "type": "tuple"
                    }
                  ],
                  "internalType": "struct Value",
                  "name": "Value",
                  "type": "tuple"
                }
              ],
              "internalType": "struct Nacionalidad",
              "name": "nacionalidad",
              "type": "tuple"
            },
            {
              "components": [
                {
                  "internalType": "string",
                  "name": "use",
                  "type": "string"
                },
                {
                  "components": [
                    {
                      "components": [
                        {
                          "internalType": "string",
                          "name": "code",
                          "type": "string"
                        },
                        {
                          "internalType": "string",
                          "name": "display",
                          "type": "string"
                        },
                        {
                          "internalType": "string",
                          "name": "definition",
                          "type": "string"
                        }
                      ],
                      "internalType": "struct Coding",
                      "name": "paises",
                      "type": "tuple"
                    },
                    {
                      "components": [
                        {
                          "internalType": "string",
                          "name": "code",
                          "type": "string"
                        },
                        {
                          "internalType": "string",
                          "name": "display",
                          "type": "string"
                        },
                        {
                          "internalType": "string",
                          "name": "definition",
                          "type": "string"
                        }
                      ],
                      "internalType": "struct Coding",
                      "name": "coding",
                      "type": "tuple"
                    }
                  ],
                  "internalType": "struct Type",
                  "name": "paises",
                  "type": "tuple"
                },
                {
                  "internalType": "string",
                  "name": "value",
                  "type": "string"
                }
              ],
              "internalType": "struct Identifier",
              "name": "identifier",
              "type": "tuple"
            },
            {
              "components": [
                {
                  "internalType": "string",
                  "name": "use",
                  "type": "string"
                },
                {
                  "components": [
                    {
                      "internalType": "string",
                      "name": "segundoApellido",
                      "type": "string"
                    }
                  ],
                  "internalType": "struct Family",
                  "name": "family",
                  "type": "tuple"
                },
                {
                  "internalType": "string",
                  "name": "given",
                  "type": "string"
                }
              ],
              "internalType": "struct NombreOficial",
              "name": "nombreOficial",
              "type": "tuple"
            },
            {
              "components": [
                {
                  "internalType": "string",
                  "name": "use",
                  "type": "string"
                },
                {
                  "internalType": "string",
                  "name": "given",
                  "type": "string"
                }
              ],
              "internalType": "struct NombreSocial",
              "name": "nombreSocial",
              "type": "tuple"
            },
            {
              "components": [
                {
                  "components": [
                    {
                      "internalType": "string",
                      "name": "code",
                      "type": "string"
                    },
                    {
                      "internalType": "string",
                      "name": "display",
                      "type": "string"
                    },
                    {
                      "internalType": "string",
                      "name": "system",
                      "type": "string"
                    }
                  ],
                  "internalType": "struct Code",
                  "name": "system",
                  "type": "tuple"
                },
                {
                  "internalType": "string",
                  "name": "value",
                  "type": "string"
                },
                {
                  "components": [
                    {
                      "internalType": "string",
                      "name": "code",
                      "type": "string"
                    },
                    {
                      "internalType": "string",
                      "name": "display",
                      "type": "string"
                    },
                    {
                      "internalType": "string",
                      "name": "system",
                      "type": "string"
                    }
                  ],
                  "internalType": "struct Code",
                  "name": "use",
                  "type": "tuple"
                }
              ],
              "internalType": "struct Telecom",
              "name": "telecom",
              "type": "tuple"
            },
            {
              "internalType": "string",
              "name": "birthDate",
              "type": "string"
            },
            {
              "components": [
                {
                  "components": [
                    {
                      "internalType": "string",
                      "name": "code",
                      "type": "string"
                    },
                    {
                      "internalType": "string",
                      "name": "display",
                      "type": "string"
                    },
                    {
                      "internalType": "string",
                      "name": "system",
                      "type": "string"
                    }
                  ],
                  "internalType": "struct Code",
                  "name": "country",
                  "type": "tuple"
                },
                {
                  "internalType": "string",
                  "name": "city",
                  "type": "string"
                },
                {
                  "internalType": "string",
                  "name": "street",
                  "type": "string"
                },
                {
                  "internalType": "string",
                  "name": "postalCode",
                  "type": "string"
                },
                {
                  "internalType": "string",
                  "name": "number",
                  "type": "string"
                }
              ],
              "internalType": "struct PatientAddress",
              "name": "patientAddress",
              "type": "tuple"
            },
            {
              "components": [
                {
                  "internalType": "string",
                  "name": "IdContacto",
                  "type": "string"
                },
                {
                  "components": [
                    {
                      "internalType": "string",
                      "name": "code",
                      "type": "string"
                    },
                    {
                      "internalType": "string",
                      "name": "display",
                      "type": "string"
                    },
                    {
                      "internalType": "string",
                      "name": "definition",
                      "type": "string"
                    }
                  ],
                  "internalType": "struct Coding",
                  "name": "relationship",
                  "type": "tuple"
                },
                {
                  "components": [
                    {
                      "internalType": "string",
                      "name": "use",
                      "type": "string"
                    },
                    {
                      "components": [
                        {
                          "internalType": "string",
                          "name": "segundoApellido",
                          "type": "string"
                        }
                      ],
                      "internalType": "struct Family",
                      "name": "family",
                      "type": "tuple"
                    },
                    {
                      "internalType": "string",
                      "name": "given",
                      "type": "string"
                    }
                  ],
                  "internalType": "struct Name",
                  "name": "name",
                  "type": "tuple"
                }
              ],
              "internalType": "struct Contact",
              "name": "contact",
              "type": "tuple"
            },
            {
              "components": [
                {
                  "components": [
                    {
                      "components": [
                        {
                          "internalType": "string",
                          "name": "code",
                          "type": "string"
                        },
                        {
                          "internalType": "string",
                          "name": "display",
                          "type": "string"
                        },
                        {
                          "internalType": "string",
                          "name": "definition",
                          "type": "string"
                        }
                      ],
                      "internalType": "struct Coding",
                      "name": "coding",
                      "type": "tuple"
                    }
                  ],
                  "internalType": "struct Lenguage",
                  "name": "lenguage",
                  "type": "tuple"
                }
              ],
              "internalType": "struct Communication",
              "name": "communication",
              "type": "tuple"
            },
            {
              "components": [
                {
                  "internalType": "string",
                  "name": "id",
                  "type": "string"
                },
                {
                  "internalType": "string",
                  "name": "Reference",
                  "type": "string"
                },
                {
                  "internalType": "string",
                  "name": "display",
                  "type": "string"
                }
              ],
              "internalType": "struct GeneralPractitioner",
              "name": "generalPractitioner",
              "type": "tuple"
            }
          ],
          "internalType": "struct patientData",
          "name": "",
          "type": "tuple"
        }
      ],
      "stateMutability": "view",
      "type": "function",
      "constant": true
    }
  ],
  "bytecode": "0x608060405234801561001057600080fd5b50615321806100206000396000f3fe608060405234801561001057600080fd5b506004361061004c5760003560e01c8063404f6363146100515780634344b74314610066578063b6bde12814610084578063d842abab146100af575b600080fd5b61006461005f36600461414e565b6100c2565b005b61006e6100e2565b60405161007b9190614466565b60405180910390f35b6100976100923660046145d6565b612002565b60405161007b9c9b9a999897969594939291906145ff565b6100976100bd366004614705565b613ee9565b33600090815260016020526040902081906100dd82826151cc565b505050565b6100ea613f2c565b336000908152600160205260409081902081516101e081019092528054829061018082019083908290829061011e906147a1565b80601f016020809104026020016040519081016040528092919081815260200182805461014a906147a1565b80156101975780601f1061016c57610100808354040283529160200191610197565b820191906000526020600020905b81548152906001019060200180831161017a57829003601f168201915b505050505081526020016001820180546101b0906147a1565b80601f01602080910402602001604051908101604052809291908181526020018280546101dc906147a1565b80156102295780601f106101fe57610100808354040283529160200191610229565b820191906000526020600020905b81548152906001019060200180831161020c57829003601f168201915b50505050508152602001600282018054610242906147a1565b80601f016020809104026020016040519081016040528092919081815260200182805461026e906147a1565b80156102bb5780601f10610290576101008083540402835291602001916102bb565b820191906000526020600020905b81548152906001019060200180831161029e57829003601f168201915b5050505050815250508152602001600382016040518060600160405290816000820180546102e8906147a1565b80601f0160208091040260200160405190810160405280929190818152602001828054610314906147a1565b80156103615780601f1061033657610100808354040283529160200191610361565b820191906000526020600020905b81548152906001019060200180831161034457829003601f168201915b5050505050815260200160018201805461037a906147a1565b80601f01602080910402602001604051908101604052809291908181526020018280546103a6906147a1565b80156103f35780601f106103c8576101008083540402835291602001916103f3565b820191906000526020600020905b8154815290600101906020018083116103d657829003601f168201915b5050505050815260200160028201805461040c906147a1565b80601f0160208091040260200160405190810160405280929190818152602001828054610438906147a1565b80156104855780601f1061045a57610100808354040283529160200191610485565b820191906000526020600020905b81548152906001019060200180831161046857829003601f168201915b5050505050815250508152602001600682016040518060400160405290816000820180546104b2906147a1565b80601f01602080910402602001604051908101604052809291908181526020018280546104de906147a1565b801561052b5780601f106105005761010080835404028352916020019161052b565b820191906000526020600020905b81548152906001019060200180831161050e57829003601f168201915b505050505081526020016001820160405180602001604052908160008201604051806060016040529081600082018054610564906147a1565b80601f0160208091040260200160405190810160405280929190818152602001828054610590906147a1565b80156105dd5780601f106105b2576101008083540402835291602001916105dd565b820191906000526020600020905b8154815290600101906020018083116105c057829003601f168201915b505050505081526020016001820180546105f6906147a1565b80601f0160208091040260200160405190810160405280929190818152602001828054610622906147a1565b801561066f5780601f106106445761010080835404028352916020019161066f565b820191906000526020600020905b81548152906001019060200180831161065257829003601f168201915b50505050508152602001600282018054610688906147a1565b80601f01602080910402602001604051908101604052809291908181526020018280546106b4906147a1565b80156107015780601f106106d657610100808354040283529160200191610701565b820191906000526020600020905b8154815290600101906020018083116106e457829003601f168201915b50505050508152505081525050815250508152602001600a8201604051806060016040529081600082018054610736906147a1565b80601f0160208091040260200160405190810160405280929190818152602001828054610762906147a1565b80156107af5780601f10610784576101008083540402835291602001916107af565b820191906000526020600020905b81548152906001019060200180831161079257829003601f168201915b5050505050815260200160018201604051806040016040529081600082016040518060600160405290816000820180546107e8906147a1565b80601f0160208091040260200160405190810160405280929190818152602001828054610814906147a1565b80156108615780601f1061083657610100808354040283529160200191610861565b820191906000526020600020905b81548152906001019060200180831161084457829003601f168201915b5050505050815260200160018201805461087a906147a1565b80601f01602080910402602001604051908101604052809291908181526020018280546108a6906147a1565b80156108f35780601f106108c8576101008083540402835291602001916108f3565b820191906000526020600020905b8154815290600101906020018083116108d657829003601f168201915b5050505050815260200160028201805461090c906147a1565b80601f0160208091040260200160405190810160405280929190818152602001828054610938906147a1565b80156109855780601f1061095a57610100808354040283529160200191610985565b820191906000526020600020905b81548152906001019060200180831161096857829003601f168201915b5050505050815250508152602001600382016040518060600160405290816000820180546109b2906147a1565b80601f01602080910402602001604051908101604052809291908181526020018280546109de906147a1565b8015610a2b5780601f10610a0057610100808354040283529160200191610a2b565b820191906000526020600020905b815481529060010190602001808311610a0e57829003601f168201915b50505050508152602001600182018054610a44906147a1565b80601f0160208091040260200160405190810160405280929190818152602001828054610a70906147a1565b8015610abd5780601f10610a9257610100808354040283529160200191610abd565b820191906000526020600020905b815481529060010190602001808311610aa057829003601f168201915b50505050508152602001600282018054610ad6906147a1565b80601f0160208091040260200160405190810160405280929190818152602001828054610b02906147a1565b8015610b4f5780601f10610b2457610100808354040283529160200191610b4f565b820191906000526020600020905b815481529060010190602001808311610b3257829003601f168201915b505050505081525050815250508152602001600782018054610b70906147a1565b80601f0160208091040260200160405190810160405280929190818152602001828054610b9c906147a1565b8015610be95780601f10610bbe57610100808354040283529160200191610be9565b820191906000526020600020905b815481529060010190602001808311610bcc57829003601f168201915b505050505081525050815260200160128201604051806060016040529081600082018054610c16906147a1565b80601f0160208091040260200160405190810160405280929190818152602001828054610c42906147a1565b8015610c8f5780601f10610c6457610100808354040283529160200191610c8f565b820191906000526020600020905b815481529060010190602001808311610c7257829003601f168201915b5050505050815260200160018201604051806020016040529081600082018054610cb8906147a1565b80601f0160208091040260200160405190810160405280929190818152602001828054610ce4906147a1565b8015610d315780601f10610d0657610100808354040283529160200191610d31565b820191906000526020600020905b815481529060010190602001808311610d1457829003601f168201915b5050505050815250508152602001600282018054610d4e906147a1565b80601f0160208091040260200160405190810160405280929190818152602001828054610d7a906147a1565b8015610dc75780601f10610d9c57610100808354040283529160200191610dc7565b820191906000526020600020905b815481529060010190602001808311610daa57829003601f168201915b505050505081525050815260200160158201604051806040016040529081600082018054610df4906147a1565b80601f0160208091040260200160405190810160405280929190818152602001828054610e20906147a1565b8015610e6d5780601f10610e4257610100808354040283529160200191610e6d565b820191906000526020600020905b815481529060010190602001808311610e5057829003601f168201915b50505050508152602001600182018054610e86906147a1565b80601f0160208091040260200160405190810160405280929190818152602001828054610eb2906147a1565b8015610eff5780601f10610ed457610100808354040283529160200191610eff565b820191906000526020600020905b815481529060010190602001808311610ee257829003601f168201915b50505050508152505081526020016017820160405180606001604052908160008201604051806060016040529081600082018054610f3c906147a1565b80601f0160208091040260200160405190810160405280929190818152602001828054610f68906147a1565b8015610fb55780601f10610f8a57610100808354040283529160200191610fb5565b820191906000526020600020905b815481529060010190602001808311610f9857829003601f168201915b50505050508152602001600182018054610fce906147a1565b80601f0160208091040260200160405190810160405280929190818152602001828054610ffa906147a1565b80156110475780601f1061101c57610100808354040283529160200191611047565b820191906000526020600020905b81548152906001019060200180831161102a57829003601f168201915b50505050508152602001600282018054611060906147a1565b80601f016020809104026020016040519081016040528092919081815260200182805461108c906147a1565b80156110d95780601f106110ae576101008083540402835291602001916110d9565b820191906000526020600020905b8154815290600101906020018083116110bc57829003601f168201915b50505050508152505081526020016003820180546110f6906147a1565b80601f0160208091040260200160405190810160405280929190818152602001828054611122906147a1565b801561116f5780601f106111445761010080835404028352916020019161116f565b820191906000526020600020905b81548152906001019060200180831161115257829003601f168201915b5050505050815260200160048201604051806060016040529081600082018054611198906147a1565b80601f01602080910402602001604051908101604052809291908181526020018280546111c4906147a1565b80156112115780601f106111e657610100808354040283529160200191611211565b820191906000526020600020905b8154815290600101906020018083116111f457829003601f168201915b5050505050815260200160018201805461122a906147a1565b80601f0160208091040260200160405190810160405280929190818152602001828054611256906147a1565b80156112a35780601f10611278576101008083540402835291602001916112a3565b820191906000526020600020905b81548152906001019060200180831161128657829003601f168201915b505050505081526020016002820180546112bc906147a1565b80601f01602080910402602001604051908101604052809291908181526020018280546112e8906147a1565b80156113355780601f1061130a57610100808354040283529160200191611335565b820191906000526020600020905b81548152906001019060200180831161131857829003601f168201915b505050505081525050815250508152602001601e82018054611356906147a1565b80601f0160208091040260200160405190810160405280929190818152602001828054611382906147a1565b80156113cf5780601f106113a4576101008083540402835291602001916113cf565b820191906000526020600020905b8154815290600101906020018083116113b257829003601f168201915b50505050508152602001601f82016040518060a001604052908160008201604051806060016040529081600082018054611408906147a1565b80601f0160208091040260200160405190810160405280929190818152602001828054611434906147a1565b80156114815780601f1061145657610100808354040283529160200191611481565b820191906000526020600020905b81548152906001019060200180831161146457829003601f168201915b5050505050815260200160018201805461149a906147a1565b80601f01602080910402602001604051908101604052809291908181526020018280546114c6906147a1565b80156115135780601f106114e857610100808354040283529160200191611513565b820191906000526020600020905b8154815290600101906020018083116114f657829003601f168201915b5050505050815260200160028201805461152c906147a1565b80601f0160208091040260200160405190810160405280929190818152602001828054611558906147a1565b80156115a55780601f1061157a576101008083540402835291602001916115a5565b820191906000526020600020905b81548152906001019060200180831161158857829003601f168201915b50505050508152505081526020016003820180546115c2906147a1565b80601f01602080910402602001604051908101604052809291908181526020018280546115ee906147a1565b801561163b5780601f106116105761010080835404028352916020019161163b565b820191906000526020600020905b81548152906001019060200180831161161e57829003601f168201915b50505050508152602001600482018054611654906147a1565b80601f0160208091040260200160405190810160405280929190818152602001828054611680906147a1565b80156116cd5780601f106116a2576101008083540402835291602001916116cd565b820191906000526020600020905b8154815290600101906020018083116116b057829003601f168201915b505050505081526020016005820180546116e6906147a1565b80601f0160208091040260200160405190810160405280929190818152602001828054611712906147a1565b801561175f5780601f106117345761010080835404028352916020019161175f565b820191906000526020600020905b81548152906001019060200180831161174257829003601f168201915b50505050508152602001600682018054611778906147a1565b80601f01602080910402602001604051908101604052809291908181526020018280546117a4906147a1565b80156117f15780601f106117c6576101008083540402835291602001916117f1565b820191906000526020600020905b8154815290600101906020018083116117d457829003601f168201915b50505050508152505081526020016026820160405180606001604052908160008201805461181e906147a1565b80601f016020809104026020016040519081016040528092919081815260200182805461184a906147a1565b80156118975780601f1061186c57610100808354040283529160200191611897565b820191906000526020600020905b81548152906001019060200180831161187a57829003601f168201915b50505050508152602001600182016040518060600160405290816000820180546118c0906147a1565b80601f01602080910402602001604051908101604052809291908181526020018280546118ec906147a1565b80156119395780601f1061190e57610100808354040283529160200191611939565b820191906000526020600020905b81548152906001019060200180831161191c57829003601f168201915b50505050508152602001600182018054611952906147a1565b80601f016020809104026020016040519081016040528092919081815260200182805461197e906147a1565b80156119cb5780601f106119a0576101008083540402835291602001916119cb565b820191906000526020600020905b8154815290600101906020018083116119ae57829003601f168201915b505050505081526020016002820180546119e4906147a1565b80601f0160208091040260200160405190810160405280929190818152602001828054611a10906147a1565b8015611a5d5780601f10611a3257610100808354040283529160200191611a5d565b820191906000526020600020905b815481529060010190602001808311611a4057829003601f168201915b505050505081525050815260200160048201604051806060016040529081600082018054611a8a906147a1565b80601f0160208091040260200160405190810160405280929190818152602001828054611ab6906147a1565b8015611b035780601f10611ad857610100808354040283529160200191611b03565b820191906000526020600020905b815481529060010190602001808311611ae657829003601f168201915b5050505050815260200160018201604051806020016040529081600082018054611b2c906147a1565b80601f0160208091040260200160405190810160405280929190818152602001828054611b58906147a1565b8015611ba55780601f10611b7a57610100808354040283529160200191611ba5565b820191906000526020600020905b815481529060010190602001808311611b8857829003601f168201915b5050505050815250508152602001600282018054611bc2906147a1565b80601f0160208091040260200160405190810160405280929190818152602001828054611bee906147a1565b8015611c3b5780601f10611c1057610100808354040283529160200191611c3b565b820191906000526020600020905b815481529060010190602001808311611c1e57829003601f168201915b5050509190925250505090525081526040805160a081018252602d84018054602094850194929391928492908301918491839190850190839082908290611c81906147a1565b80601f0160208091040260200160405190810160405280929190818152602001828054611cad906147a1565b8015611cfa5780601f10611ccf57610100808354040283529160200191611cfa565b820191906000526020600020905b815481529060010190602001808311611cdd57829003601f168201915b50505050508152602001600182018054611d13906147a1565b80601f0160208091040260200160405190810160405280929190818152602001828054611d3f906147a1565b8015611d8c5780601f10611d6157610100808354040283529160200191611d8c565b820191906000526020600020905b815481529060010190602001808311611d6f57829003601f168201915b50505050508152602001600282018054611da5906147a1565b80601f0160208091040260200160405190810160405280929190818152602001828054611dd1906147a1565b8015611e1e5780601f10611df357610100808354040283529160200191611e1e565b820191906000526020600020905b815481529060010190602001808311611e0157829003601f168201915b5050505050815250508152505081525050815260200160308201604051806060016040529081600082018054611e53906147a1565b80601f0160208091040260200160405190810160405280929190818152602001828054611e7f906147a1565b8015611ecc5780601f10611ea157610100808354040283529160200191611ecc565b820191906000526020600020905b815481529060010190602001808311611eaf57829003601f168201915b50505050508152602001600182018054611ee5906147a1565b80601f0160208091040260200160405190810160405280929190818152602001828054611f11906147a1565b8015611f5e5780601f10611f3357610100808354040283529160200191611f5e565b820191906000526020600020905b815481529060010190602001808311611f4157829003601f168201915b50505050508152602001600282018054611f77906147a1565b80601f0160208091040260200160405190810160405280929190818152602001828054611fa3906147a1565b8015611ff05780601f10611fc557610100808354040283529160200191611ff0565b820191906000526020600020905b815481529060010190602001808311611fd357829003601f168201915b50505050508152505081525050905090565b600160205280600052604060002060009150905080600001604051806060016040529081600082018054612035906147a1565b80601f0160208091040260200160405190810160405280929190818152602001828054612061906147a1565b80156120ae5780601f10612083576101008083540402835291602001916120ae565b820191906000526020600020905b81548152906001019060200180831161209157829003601f168201915b505050505081526020016001820180546120c7906147a1565b80601f01602080910402602001604051908101604052809291908181526020018280546120f3906147a1565b80156121405780601f1061211557610100808354040283529160200191612140565b820191906000526020600020905b81548152906001019060200180831161212357829003601f168201915b50505050508152602001600282018054612159906147a1565b80601f0160208091040260200160405190810160405280929190818152602001828054612185906147a1565b80156121d25780601f106121a7576101008083540402835291602001916121d2565b820191906000526020600020905b8154815290600101906020018083116121b557829003601f168201915b50505050508152505090806003016040518060600160405290816000820180546121fb906147a1565b80601f0160208091040260200160405190810160405280929190818152602001828054612227906147a1565b80156122745780601f1061224957610100808354040283529160200191612274565b820191906000526020600020905b81548152906001019060200180831161225757829003601f168201915b5050505050815260200160018201805461228d906147a1565b80601f01602080910402602001604051908101604052809291908181526020018280546122b9906147a1565b80156123065780601f106122db57610100808354040283529160200191612306565b820191906000526020600020905b8154815290600101906020018083116122e957829003601f168201915b5050505050815260200160028201805461231f906147a1565b80601f016020809104026020016040519081016040528092919081815260200182805461234b906147a1565b80156123985780601f1061236d57610100808354040283529160200191612398565b820191906000526020600020905b81548152906001019060200180831161237b57829003601f168201915b50505050508152505090806006016040518060400160405290816000820180546123c1906147a1565b80601f01602080910402602001604051908101604052809291908181526020018280546123ed906147a1565b801561243a5780601f1061240f5761010080835404028352916020019161243a565b820191906000526020600020905b81548152906001019060200180831161241d57829003601f168201915b505050505081526020016001820160405180602001604052908160008201604051806060016040529081600082018054612473906147a1565b80601f016020809104026020016040519081016040528092919081815260200182805461249f906147a1565b80156124ec5780601f106124c1576101008083540402835291602001916124ec565b820191906000526020600020905b8154815290600101906020018083116124cf57829003601f168201915b50505050508152602001600182018054612505906147a1565b80601f0160208091040260200160405190810160405280929190818152602001828054612531906147a1565b801561257e5780601f106125535761010080835404028352916020019161257e565b820191906000526020600020905b81548152906001019060200180831161256157829003601f168201915b50505050508152602001600282018054612597906147a1565b80601f01602080910402602001604051908101604052809291908181526020018280546125c3906147a1565b80156126105780601f106125e557610100808354040283529160200191612610565b820191906000526020600020905b8154815290600101906020018083116125f357829003601f168201915b50505050508152505081525050815250509080600a01604051806060016040529081600082018054612641906147a1565b80601f016020809104026020016040519081016040528092919081815260200182805461266d906147a1565b80156126ba5780601f1061268f576101008083540402835291602001916126ba565b820191906000526020600020905b81548152906001019060200180831161269d57829003601f168201915b5050505050815260200160018201604051806040016040529081600082016040518060600160405290816000820180546126f3906147a1565b80601f016020809104026020016040519081016040528092919081815260200182805461271f906147a1565b801561276c5780601f106127415761010080835404028352916020019161276c565b820191906000526020600020905b81548152906001019060200180831161274f57829003601f168201915b50505050508152602001600182018054612785906147a1565b80601f01602080910402602001604051908101604052809291908181526020018280546127b1906147a1565b80156127fe5780601f106127d3576101008083540402835291602001916127fe565b820191906000526020600020905b8154815290600101906020018083116127e157829003601f168201915b50505050508152602001600282018054612817906147a1565b80601f0160208091040260200160405190810160405280929190818152602001828054612843906147a1565b80156128905780601f1061286557610100808354040283529160200191612890565b820191906000526020600020905b81548152906001019060200180831161287357829003601f168201915b5050505050815250508152602001600382016040518060600160405290816000820180546128bd906147a1565b80601f01602080910402602001604051908101604052809291908181526020018280546128e9906147a1565b80156129365780601f1061290b57610100808354040283529160200191612936565b820191906000526020600020905b81548152906001019060200180831161291957829003601f168201915b5050505050815260200160018201805461294f906147a1565b80601f016020809104026020016040519081016040528092919081815260200182805461297b906147a1565b80156129c85780601f1061299d576101008083540402835291602001916129c8565b820191906000526020600020905b8154815290600101906020018083116129ab57829003601f168201915b505050505081526020016002820180546129e1906147a1565b80601f0160208091040260200160405190810160405280929190818152602001828054612a0d906147a1565b8015612a5a5780601f10612a2f57610100808354040283529160200191612a5a565b820191906000526020600020905b815481529060010190602001808311612a3d57829003601f168201915b505050505081525050815250508152602001600782018054612a7b906147a1565b80601f0160208091040260200160405190810160405280929190818152602001828054612aa7906147a1565b8015612af45780601f10612ac957610100808354040283529160200191612af4565b820191906000526020600020905b815481529060010190602001808311612ad757829003601f168201915b5050505050815250509080601201604051806060016040529081600082018054612b1d906147a1565b80601f0160208091040260200160405190810160405280929190818152602001828054612b49906147a1565b8015612b965780601f10612b6b57610100808354040283529160200191612b96565b820191906000526020600020905b815481529060010190602001808311612b7957829003601f168201915b5050505050815260200160018201604051806020016040529081600082018054612bbf906147a1565b80601f0160208091040260200160405190810160405280929190818152602001828054612beb906147a1565b8015612c385780601f10612c0d57610100808354040283529160200191612c38565b820191906000526020600020905b815481529060010190602001808311612c1b57829003601f168201915b5050505050815250508152602001600282018054612c55906147a1565b80601f0160208091040260200160405190810160405280929190818152602001828054612c81906147a1565b8015612cce5780601f10612ca357610100808354040283529160200191612cce565b820191906000526020600020905b815481529060010190602001808311612cb157829003601f168201915b5050505050815250509080601501604051806040016040529081600082018054612cf7906147a1565b80601f0160208091040260200160405190810160405280929190818152602001828054612d23906147a1565b8015612d705780601f10612d4557610100808354040283529160200191612d70565b820191906000526020600020905b815481529060010190602001808311612d5357829003601f168201915b50505050508152602001600182018054612d89906147a1565b80601f0160208091040260200160405190810160405280929190818152602001828054612db5906147a1565b8015612e025780601f10612dd757610100808354040283529160200191612e02565b820191906000526020600020905b815481529060010190602001808311612de557829003601f168201915b505050505081525050908060170160405180606001604052908160008201604051806060016040529081600082018054612e3b906147a1565b80601f0160208091040260200160405190810160405280929190818152602001828054612e67906147a1565b8015612eb45780601f10612e8957610100808354040283529160200191612eb4565b820191906000526020600020905b815481529060010190602001808311612e9757829003601f168201915b50505050508152602001600182018054612ecd906147a1565b80601f0160208091040260200160405190810160405280929190818152602001828054612ef9906147a1565b8015612f465780601f10612f1b57610100808354040283529160200191612f46565b820191906000526020600020905b815481529060010190602001808311612f2957829003601f168201915b50505050508152602001600282018054612f5f906147a1565b80601f0160208091040260200160405190810160405280929190818152602001828054612f8b906147a1565b8015612fd85780601f10612fad57610100808354040283529160200191612fd8565b820191906000526020600020905b815481529060010190602001808311612fbb57829003601f168201915b5050505050815250508152602001600382018054612ff5906147a1565b80601f0160208091040260200160405190810160405280929190818152602001828054613021906147a1565b801561306e5780601f106130435761010080835404028352916020019161306e565b820191906000526020600020905b81548152906001019060200180831161305157829003601f168201915b5050505050815260200160048201604051806060016040529081600082018054613097906147a1565b80601f01602080910402602001604051908101604052809291908181526020018280546130c3906147a1565b80156131105780601f106130e557610100808354040283529160200191613110565b820191906000526020600020905b8154815290600101906020018083116130f357829003601f168201915b50505050508152602001600182018054613129906147a1565b80601f0160208091040260200160405190810160405280929190818152602001828054613155906147a1565b80156131a25780601f10613177576101008083540402835291602001916131a2565b820191906000526020600020905b81548152906001019060200180831161318557829003601f168201915b505050505081526020016002820180546131bb906147a1565b80601f01602080910402602001604051908101604052809291908181526020018280546131e7906147a1565b80156132345780601f1061320957610100808354040283529160200191613234565b820191906000526020600020905b81548152906001019060200180831161321757829003601f168201915b505050505081525050815250509080601e018054613251906147a1565b80601f016020809104026020016040519081016040528092919081815260200182805461327d906147a1565b80156132ca5780601f1061329f576101008083540402835291602001916132ca565b820191906000526020600020905b8154815290600101906020018083116132ad57829003601f168201915b50505050509080601f016040518060a0016040529081600082016040518060600160405290816000820180546132ff906147a1565b80601f016020809104026020016040519081016040528092919081815260200182805461332b906147a1565b80156133785780601f1061334d57610100808354040283529160200191613378565b820191906000526020600020905b81548152906001019060200180831161335b57829003601f168201915b50505050508152602001600182018054613391906147a1565b80601f01602080910402602001604051908101604052809291908181526020018280546133bd906147a1565b801561340a5780601f106133df5761010080835404028352916020019161340a565b820191906000526020600020905b8154815290600101906020018083116133ed57829003601f168201915b50505050508152602001600282018054613423906147a1565b80601f016020809104026020016040519081016040528092919081815260200182805461344f906147a1565b801561349c5780601f106134715761010080835404028352916020019161349c565b820191906000526020600020905b81548152906001019060200180831161347f57829003601f168201915b50505050508152505081526020016003820180546134b9906147a1565b80601f01602080910402602001604051908101604052809291908181526020018280546134e5906147a1565b80156135325780601f1061350757610100808354040283529160200191613532565b820191906000526020600020905b81548152906001019060200180831161351557829003601f168201915b5050505050815260200160048201805461354b906147a1565b80601f0160208091040260200160405190810160405280929190818152602001828054613577906147a1565b80156135c45780601f10613599576101008083540402835291602001916135c4565b820191906000526020600020905b8154815290600101906020018083116135a757829003601f168201915b505050505081526020016005820180546135dd906147a1565b80601f0160208091040260200160405190810160405280929190818152602001828054613609906147a1565b80156136565780601f1061362b57610100808354040283529160200191613656565b820191906000526020600020905b81548152906001019060200180831161363957829003601f168201915b5050505050815260200160068201805461366f906147a1565b80601f016020809104026020016040519081016040528092919081815260200182805461369b906147a1565b80156136e85780601f106136bd576101008083540402835291602001916136e8565b820191906000526020600020905b8154815290600101906020018083116136cb57829003601f168201915b5050505050815250509080602601604051806060016040529081600082018054613711906147a1565b80601f016020809104026020016040519081016040528092919081815260200182805461373d906147a1565b801561378a5780601f1061375f5761010080835404028352916020019161378a565b820191906000526020600020905b81548152906001019060200180831161376d57829003601f168201915b50505050508152602001600182016040518060600160405290816000820180546137b3906147a1565b80601f01602080910402602001604051908101604052809291908181526020018280546137df906147a1565b801561382c5780601f106138015761010080835404028352916020019161382c565b820191906000526020600020905b81548152906001019060200180831161380f57829003601f168201915b50505050508152602001600182018054613845906147a1565b80601f0160208091040260200160405190810160405280929190818152602001828054613871906147a1565b80156138be5780601f10613893576101008083540402835291602001916138be565b820191906000526020600020905b8154815290600101906020018083116138a157829003601f168201915b505050505081526020016002820180546138d7906147a1565b80601f0160208091040260200160405190810160405280929190818152602001828054613903906147a1565b80156139505780601f1061392557610100808354040283529160200191613950565b820191906000526020600020905b81548152906001019060200180831161393357829003601f168201915b50505050508152505081526020016004820160405180606001604052908160008201805461397d906147a1565b80601f01602080910402602001604051908101604052809291908181526020018280546139a9906147a1565b80156139f65780601f106139cb576101008083540402835291602001916139f6565b820191906000526020600020905b8154815290600101906020018083116139d957829003601f168201915b5050505050815260200160018201604051806020016040529081600082018054613a1f906147a1565b80601f0160208091040260200160405190810160405280929190818152602001828054613a4b906147a1565b8015613a985780601f10613a6d57610100808354040283529160200191613a98565b820191906000526020600020905b815481529060010190602001808311613a7b57829003601f168201915b5050505050815250508152602001600282018054613ab5906147a1565b80601f0160208091040260200160405190810160405280929190818152602001828054613ae1906147a1565b8015613b2e5780601f10613b0357610100808354040283529160200191613b2e565b820191906000526020600020905b815481529060010190602001808311613b1157829003601f168201915b505050919092525050509052506040805160a081018252602d8401805493949391929091839160208301918491839190850190839082908290613b70906147a1565b80601f0160208091040260200160405190810160405280929190818152602001828054613b9c906147a1565b8015613be95780601f10613bbe57610100808354040283529160200191613be9565b820191906000526020600020905b815481529060010190602001808311613bcc57829003601f168201915b50505050508152602001600182018054613c02906147a1565b80601f0160208091040260200160405190810160405280929190818152602001828054613c2e906147a1565b8015613c7b5780601f10613c5057610100808354040283529160200191613c7b565b820191906000526020600020905b815481529060010190602001808311613c5e57829003601f168201915b50505050508152602001600282018054613c94906147a1565b80601f0160208091040260200160405190810160405280929190818152602001828054613cc0906147a1565b8015613d0d5780601f10613ce257610100808354040283529160200191613d0d565b820191906000526020600020905b815481529060010190602001808311613cf057829003601f168201915b50505050508152505081525050815250509080603001604051806060016040529081600082018054613d3e906147a1565b80601f0160208091040260200160405190810160405280929190818152602001828054613d6a906147a1565b8015613db75780601f10613d8c57610100808354040283529160200191613db7565b820191906000526020600020905b815481529060010190602001808311613d9a57829003601f168201915b50505050508152602001600182018054613dd0906147a1565b80601f0160208091040260200160405190810160405280929190818152602001828054613dfc906147a1565b8015613e495780601f10613e1e57610100808354040283529160200191613e49565b820191906000526020600020905b815481529060010190602001808311613e2c57829003601f168201915b50505050508152602001600282018054613e62906147a1565b80601f0160208091040260200160405190810160405280929190818152602001828054613e8e906147a1565b8015613edb5780601f10613eb057610100808354040283529160200191613edb565b820191906000526020600020905b815481529060010190602001808311613ebe57829003601f168201915b50505050508152505090508c565b60008181548110613ef957600080fd5b906000526020600020906033020160009150905080600001604051806060016040529081600082018054612035906147a1565b604051806101800160405280613f40613fff565b8152602001613f4d613fff565b8152602001613f5a614020565b8152602001613f6761403a565b8152602001613f74614061565b8152602001613f96604051806040016040528060608152602001606081525090565b8152602001613fa3614089565b815260200160608152602001613fb76140b0565b8152602001613fc46140e5565b8152602001613fd161410c565b8152602001613ffa60405180606001604052806060815260200160608152602001606081525090565b905290565b60405180606001604052806060815260200160608152602001606081525090565b604051806040016040528060608152602001613ffa61411b565b60405180606001604052806060815260200161405461412e565b8152602001606081525090565b6040518060600160405280606081526020016140546040518060200160405280606081525090565b604051806060016040528061409c613fff565b815260200160608152602001613ffa613fff565b6040518060a001604052806140c3613fff565b8152602001606081526020016060815260200160608152602001606081525090565b6040518060600160405280606081526020016140ff613fff565b8152602001613ffa614061565b6040518060200160405280613ffa5b6040518060200160405280613ffa613fff565b6040518060400160405280614141613fff565b8152602001613ffa613fff565b60006020828403121561416057600080fd5b81356001600160401b0381111561417657600080fd5b8201610180818503121561418957600080fd5b9392505050565b6000815180845260005b818110156141b65760208185018101518683018201520161419a565b818111156141c8576000602083870101525b50601f01601f19169290920160200192915050565b60008151606084526141f26060850182614190565b90506020830151848203602086015261420b8282614190565b915050604083015184820360408601526142258282614190565b95945050505050565b60008151604084526142436040850182614190565b6020848101518683038783015251818352919250614225908301826141dd565b60008151606084526142786060850182614190565b90506020830151848203602086015280516040835261429a60408401826141dd565b90506020820151915082810360208401526142b581836141dd565b92505050604083015184820360408601526142258282614190565b60008151606084526142e56060850182614190565b602084810151868303878301525181835291925061420b90830182614190565b600081516040845261431a6040850182614190565b9050602083015184820360208601526142258282614190565b600081516060845261434860608501826141dd565b9050602083015184820360208601526143618282614190565b9150506040830151848203604086015261422582826141dd565b6000815160a0845261439060a08501826141dd565b9050602083015184820360208601526143a98282614190565b915050604083015184820360408601526143c38282614190565b915050606083015184820360608601526143dd8282614190565b915050608083015184820360808601526142258282614190565b600081516060845261440c6060850182614190565b90506020830151848203602086015261442582826141dd565b9150506040830151848203604086015261422582826142d0565b60008151602084528051905060208085015261445e60408501826141dd565b949350505050565b60208152600082516101808060208501526144856101a08501836141dd565b91506020850151601f19808685030160408701526144a384836141dd565b935060408701519150808685030160608701526144c0848361422e565b935060608701519150808685030160808701526144dd8483614263565b935060808701519150808685030160a08701526144fa84836142d0565b935060a08701519150808685030160c08701526145178483614305565b935060c08701519150808685030160e08701526145348483614333565b935060e087015191506101008187860301818801526145538584614190565b945080880151925050610120818786030181880152614572858461437b565b94508088015192505061014081878603018188015261459185846143f7565b9450808801519250506101608187860301818801526145b0858461443f565b9088015187820390920184880152935090506145cc83826141dd565b9695505050505050565b6000602082840312156145e857600080fd5b81356001600160a01b038116811461418957600080fd5b6101808152600061461461018083018f6141dd565b8281036020840152614626818f6141dd565b9050828103604084015261463a818e61422e565b9050828103606084015261464e818d614263565b90508281036080840152614662818c6142d0565b905082810360a0840152614676818b614305565b905082810360c084015261468a818a614333565b905082810360e084015261469e8189614190565b90508281036101008401526146b3818861437b565b90508281036101208401526146c881876143f7565b90508281036101408401526146dd818661443f565b90508281036101608401526146f281856141dd565b9f9e505050505050505050505050505050565b60006020828403121561471757600080fd5b5035919050565b60008235605e1983360301811261473457600080fd5b9190910192915050565b6000808335601e1984360301811261475557600080fd5b8301803591506001600160401b0382111561476f57600080fd5b60200191503681900382131561478457600080fd5b9250929050565b634e487b7160e01b600052604160045260246000fd5b600181811c908216806147b557607f821691505b6020821081036147d557634e487b7160e01b600052602260045260246000fd5b50919050565b601f8211156100dd57600081815260208120601f850160051c810160208610156148025750805b601f850160051c820191505b818110156148215782815560010161480e565b505050505050565b600019600383901b1c191660019190911b1790565b6001600160401b038311156148555761485561478b565b6148698361486383546147a1565b836147db565b6000601f84116001811461489757600085156148855750838201355b61488f8682614829565b8455506148f1565b600083815260209020601f19861690835b828110156148c857868501358255602094850194600190920191016148a8565b50868210156148e55760001960f88860031b161c19848701351681555b505060018560011b0183555b5050505050565b614902828361473e565b6001600160401b038111156149195761491961478b565b61492d8161492785546147a1565b856147db565b6000601f82116001811461495b57600083156149495750838201355b6149538482614829565b8655506149b5565b600085815260209020601f19841690835b8281101561498c578685013582556020948501946001909201910161496c565b50848210156149a95760001960f88660031b161c19848701351681555b505060018360011b0185555b505050506149c6602083018361473e565b6149d481836001860161483e565b50506149e3604083018361473e565b6149f181836002860161483e565b50505050565b60008235603e1983360301811261473457600080fd5b60008235601e1983360301811261473457600080fd5b614a36614a30838461471e565b826148f8565b5050565b614a44828361473e565b6001600160401b03811115614a5b57614a5b61478b565b614a698161492785546147a1565b6000601f821160018114614a975760008315614a855750838201355b614a8f8482614829565b865550614af1565b600085815260209020601f19841690835b82811015614ac85786850135825560209485019460019092019101614aa8565b5084821015614ae55760001960f88660031b161c19848701351681555b505060018360011b0185555b50505050614a36614b056020840184614a0d565b60018301614a23565b614b1b614a30838461471e565b614a36614b2b602084018461471e565b600383016148f8565b614b3e828361473e565b6001600160401b03811115614b5557614b5561478b565b614b638161492785546147a1565b6000601f821160018114614b915760008315614b7f5750838201355b614b898482614829565b865550614beb565b600085815260209020601f19841690835b82811015614bc25786850135825560209485019460019092019101614ba2565b5084821015614bdf5760001960f88660031b161c19848701351681555b505060018360011b0185555b50505050614c08614bff60208401846149f7565b60018301614b0e565b614c15604083018361473e565b6149f181836007860161483e565b614c2d828361473e565b6001600160401b03811115614c4457614c4461478b565b614c528161492785546147a1565b6000601f821160018114614c805760008315614c6e5750838201355b614c788482614829565b865550614821565b600085815260209020601f19841690835b82811015614cb15786850135825560209485019460019092019101614c91565b5084821015614cce5760001960f88660031b161c19848701351681555b50505050600190811b019091555050565b614ce9828361473e565b6001600160401b03811115614d0057614d0061478b565b614d0e8161492785546147a1565b6000601f821160018114614d3c5760008315614d2a5750838201355b614d348482614829565b865550614d96565b600085815260209020601f19841690835b82811015614d6d5786850135825560209485019460019092019101614d4d565b5084821015614d8a5760001960f88660031b161c19848701351681555b505060018360011b0185555b50505050614db3614daa6020840184614a0d565b60018301614c23565b6149e3604083018361473e565b614dca828361473e565b6001600160401b03811115614de157614de161478b565b614def8161492785546147a1565b6000601f821160018114614e1d5760008315614e0b5750838201355b614e158482614829565b865550614e77565b600085815260209020601f19841690835b82811015614e4e5786850135825560209485019460019092019101614e2e565b5084821015614e6b5760001960f88660031b161c19848701351681555b505060018360011b0185555b50505050614e88602083018361473e565b6149f181836001860161483e565b614ea3614a30838461471e565b600381016020614eb58185018561473e565b6001600160401b03811115614ecc57614ecc61478b565b614ee081614eda86546147a1565b866147db565b6000601f821160018114614f0e5760008315614efc5750838201355b614f068482614829565b875550614f67565b600086815260209020601f19841690835b82811015614f3e57868501358255938701936001909101908701614f1f565b5084821015614f5b5760001960f88660031b161c19848701351681555b505060018360011b0186555b505050505050614a36614f7d604084018461471e565b600483016148f8565b60008235609e1983360301811261473457600080fd5b614fa9614a30838461471e565b600381016020614fbb8185018561473e565b6001600160401b03811115614fd257614fd261478b565b614fe081614eda86546147a1565b6000601f82116001811461500e5760008315614ffc5750838201355b6150068482614829565b875550615067565b600086815260209020601f19841690835b8281101561503e5786850135825593870193600190910190870161501f565b508482101561505b5760001960f88660031b161c19848701351681555b505060018360011b0186555b50505050505061507a604083018361473e565b61508881836004860161483e565b5050615097606083018361473e565b6150a581836005860161483e565b50506150b4608083018361473e565b6149f181836006860161483e565b6150cc828361473e565b6001600160401b038111156150e3576150e361478b565b6150f18161492785546147a1565b6000601f82116001811461511f576000831561510d5750838201355b6151178482614829565b865550615179565b600085815260209020601f19841690835b828110156151505786850135825560209485019460019092019101615130565b508482101561516d5760001960f88660031b161c19848701351681555b505060018360011b0185555b5050505061519661518d602084018461471e565b600183016148f8565b614a366151a6604084018461471e565b60048301614cdf565b6151b98283614a0d565b6100dd6151c6828361471e565b836148f8565b6151d9614a30838461471e565b6151e9614b2b602084018461471e565b6152026151f960408401846149f7565b60068301614a3a565b61521b615212606084018461471e565b600a8301614b34565b61523461522b608084018461471e565b60128301614cdf565b61524d61524460a08401846149f7565b60158301614dc0565b61526661525d60c084018461471e565b60178301614e96565b61527360e083018361473e565b6152818183601e860161483e565b505061529d615294610100840184614f86565b601f8301614f9c565b6152b76152ae61012084018461471e565b602683016150c2565b6152d16152c8610140840184614a0d565b602d83016151af565b614a366152e261016084018461471e565b603083016148f856fea2646970667358221220bad38414277515124dbf0a6da7c8c0f191b81cd6a4caf5340e71e9f2c61132b864736f6c634300080d0033",
  "immutableReferences": {},
  "source": "// SPDX-License-Identifier: GPL-3.0\npragma solidity =0.8.13;\n\nstruct Code {\n    string code;\n    string display;\n    string system;\n}\n\nstruct Coding {\n    string code;\n    string display;\n    string definition;\n}\nstruct Value {\n    Code coding;\n}\nstruct Nacionalidad {\n    string url;\n    Value Value;\n}\nstruct Type {\n    Coding paises;\n    Coding coding;\n}\nstruct Identifier {\n    string use;\n    Type paises;\n    string value;\n}\n\nstruct Family {\n    string segundoApellido;\n}\n\nstruct NombreOficial {\n    string use;\n    Family family;\n    string given;\n}\n\nstruct NombreSocial {\n    string use;\n    string given;\n}\n\nstruct Telecom {\n    Code system;\n    string value;\n    Code use;\n}\n\nstruct PatientAddress {\n    Code country;\n    string city;\n    string street;\n    string postalCode;\n    string number;\n}\n\nstruct Name {\n    string use;\n    Family family;\n    string given;\n}\nstruct Contact {\n    string IdContacto;\n    Coding relationship;\n    Name name;\n}\n\nstruct Lenguage {\n    Coding coding;\n}\nstruct Communication {\n    Lenguage lenguage;\n}\n\nstruct GeneralPractitioner {\n    string id;\n    string Reference;\n    string display;\n}\n\nstruct patientData {\n    Code identidadDeGenero;\n    Coding sexoBiologico;\n    Nacionalidad nacionalidad;\n    Identifier identifier;\n    NombreOficial nombreOficial;\n    NombreSocial nombreSocial;\n    Telecom telecom;\n    string birthDate;\n    PatientAddress patientAddress;\n    Contact contact;\n    Communication communication;\n    GeneralPractitioner generalPractitioner;\n}\n\ncontract paciente_v2 {\n    patientData[] public pacientes;\n    mapping(address => patientData) public patientDataToAddress;\n    \n    function updatePatientData(patientData calldata _patientData) public {\n        patientDataToAddress[msg.sender] = _patientData;\n    }\n    function getPatientData() public view returns (patientData memory) {\n        return patientDataToAddress[msg.sender];\n    }\n}\n ",
  "sourcePath": "/home/alonso/quickstart besu v2/contract/contracts/paciente_v2.sol",
  "compiler": {
    "name": "solc",
    "version": "0.8.13+commit.abaa5c0e.Emscripten.clang"
  },
  "schemaVersion": "3.4.13",
  "updatedAt": "2024-05-08T04:36:10.941Z",
  "networkType": "ethereum",
  "devdoc": {
    "kind": "dev",
    "methods": {},
    "version": 1
  },
  "userdoc": {
    "kind": "user",
    "methods": {},
    "version": 1
  }
}