{
  "contractName": "paciente",
  "gas": 5000000,
  "abi": [
    {
      "inputs": [
        {
          "internalType": "uint256",
          "name": "",
          "type": "uint256"
        }
      ],
      "name": "pacientes",
      "outputs": [
        {
          "components": [
            {
              "internalType": "string",
              "name": "code",
              "type": "string"
            },
            {
              "internalType": "string",
              "name": "display",
              "type": "string"
            },
            {
              "internalType": "string",
              "name": "system",
              "type": "string"
            }
          ],
          "internalType": "struct Code",
          "name": "identidadDeGenero",
          "type": "tuple"
        },
        {
          "components": [
            {
              "internalType": "string",
              "name": "code",
              "type": "string"
            },
            {
              "internalType": "string",
              "name": "display",
              "type": "string"
            },
            {
              "internalType": "string",
              "name": "definition",
              "type": "string"
            }
          ],
          "internalType": "struct Coding",
          "name": "sexoBiologico",
          "type": "tuple"
        },
        {
          "components": [
            {
              "internalType": "string",
              "name": "url",
              "type": "string"
            },
            {
              "components": [
                {
                  "components": [
                    {
                      "internalType": "string",
                      "name": "code",
                      "type": "string"
                    },
                    {
                      "internalType": "string",
                      "name": "display",
                      "type": "string"
                    },
                    {
                      "internalType": "string",
                      "name": "system",
                      "type": "string"
                    }
                  ],
                  "internalType": "struct Code",
                  "name": "coding",
                  "type": "tuple"
                }
              ],
              "internalType": "struct Value",
              "name": "Value",
              "type": "tuple"
            }
          ],
          "internalType": "struct Nacionalidad",
          "name": "nacionalidad",
          "type": "tuple"
        },
        {
          "components": [
            {
              "internalType": "string",
              "name": "use",
              "type": "string"
            },
            {
              "components": [
                {
                  "components": [
                    {
                      "internalType": "string",
                      "name": "code",
                      "type": "string"
                    },
                    {
                      "internalType": "string",
                      "name": "display",
                      "type": "string"
                    },
                    {
                      "internalType": "string",
                      "name": "definition",
                      "type": "string"
                    }
                  ],
                  "internalType": "struct Coding",
                  "name": "paises",
                  "type": "tuple"
                },
                {
                  "components": [
                    {
                      "internalType": "string",
                      "name": "code",
                      "type": "string"
                    },
                    {
                      "internalType": "string",
                      "name": "display",
                      "type": "string"
                    },
                    {
                      "internalType": "string",
                      "name": "definition",
                      "type": "string"
                    }
                  ],
                  "internalType": "struct Coding",
                  "name": "coding",
                  "type": "tuple"
                }
              ],
              "internalType": "struct Type",
              "name": "paises",
              "type": "tuple"
            },
            {
              "internalType": "string",
              "name": "value",
              "type": "string"
            }
          ],
          "internalType": "struct Identifier",
          "name": "identifier",
          "type": "tuple"
        },
        {
          "components": [
            {
              "internalType": "string",
              "name": "use",
              "type": "string"
            },
            {
              "components": [
                {
                  "internalType": "string",
                  "name": "segundoApellido",
                  "type": "string"
                }
              ],
              "internalType": "struct Family",
              "name": "family",
              "type": "tuple"
            },
            {
              "internalType": "string",
              "name": "given",
              "type": "string"
            }
          ],
          "internalType": "struct NombreOficial",
          "name": "nombreOficial",
          "type": "tuple"
        },
        {
          "components": [
            {
              "internalType": "string",
              "name": "use",
              "type": "string"
            },
            {
              "internalType": "string",
              "name": "given",
              "type": "string"
            }
          ],
          "internalType": "struct NombreSocial",
          "name": "nombreSocial",
          "type": "tuple"
        },
        {
          "components": [
            {
              "components": [
                {
                  "internalType": "string",
                  "name": "code",
                  "type": "string"
                },
                {
                  "internalType": "string",
                  "name": "display",
                  "type": "string"
                },
                {
                  "internalType": "string",
                  "name": "system",
                  "type": "string"
                }
              ],
              "internalType": "struct Code",
              "name": "system",
              "type": "tuple"
            },
            {
              "internalType": "string",
              "name": "value",
              "type": "string"
            },
            {
              "components": [
                {
                  "internalType": "string",
                  "name": "code",
                  "type": "string"
                },
                {
                  "internalType": "string",
                  "name": "display",
                  "type": "string"
                },
                {
                  "internalType": "string",
                  "name": "system",
                  "type": "string"
                }
              ],
              "internalType": "struct Code",
              "name": "use",
              "type": "tuple"
            }
          ],
          "internalType": "struct Telecom",
          "name": "telecom",
          "type": "tuple"
        },
        {
          "internalType": "string",
          "name": "birthDate",
          "type": "string"
        },
        {
          "components": [
            {
              "components": [
                {
                  "internalType": "string",
                  "name": "code",
                  "type": "string"
                },
                {
                  "internalType": "string",
                  "name": "display",
                  "type": "string"
                },
                {
                  "internalType": "string",
                  "name": "system",
                  "type": "string"
                }
              ],
              "internalType": "struct Code",
              "name": "country",
              "type": "tuple"
            },
            {
              "internalType": "string",
              "name": "city",
              "type": "string"
            },
            {
              "internalType": "string",
              "name": "street",
              "type": "string"
            },
            {
              "internalType": "string",
              "name": "postalCode",
              "type": "string"
            },
            {
              "internalType": "string",
              "name": "number",
              "type": "string"
            }
          ],
          "internalType": "struct PatientAddress",
          "name": "patientAddress",
          "type": "tuple"
        },
        {
          "components": [
            {
              "internalType": "string",
              "name": "IdContacto",
              "type": "string"
            },
            {
              "components": [
                {
                  "internalType": "string",
                  "name": "code",
                  "type": "string"
                },
                {
                  "internalType": "string",
                  "name": "display",
                  "type": "string"
                },
                {
                  "internalType": "string",
                  "name": "definition",
                  "type": "string"
                }
              ],
              "internalType": "struct Coding",
              "name": "relationship",
              "type": "tuple"
            },
            {
              "components": [
                {
                  "internalType": "string",
                  "name": "use",
                  "type": "string"
                },
                {
                  "components": [
                    {
                      "internalType": "string",
                      "name": "segundoApellido",
                      "type": "string"
                    }
                  ],
                  "internalType": "struct Family",
                  "name": "family",
                  "type": "tuple"
                },
                {
                  "internalType": "string",
                  "name": "given",
                  "type": "string"
                }
              ],
              "internalType": "struct Name",
              "name": "name",
              "type": "tuple"
            }
          ],
          "internalType": "struct Contact",
          "name": "contact",
          "type": "tuple"
        },
        {
          "components": [
            {
              "components": [
                {
                  "components": [
                    {
                      "internalType": "string",
                      "name": "code",
                      "type": "string"
                    },
                    {
                      "internalType": "string",
                      "name": "display",
                      "type": "string"
                    },
                    {
                      "internalType": "string",
                      "name": "definition",
                      "type": "string"
                    }
                  ],
                  "internalType": "struct Coding",
                  "name": "coding",
                  "type": "tuple"
                }
              ],
              "internalType": "struct Lenguage",
              "name": "lenguage",
              "type": "tuple"
            }
          ],
          "internalType": "struct Communication",
          "name": "communication",
          "type": "tuple"
        },
        {
          "components": [
            {
              "internalType": "string",
              "name": "id",
              "type": "string"
            },
            {
              "internalType": "string",
              "name": "Reference",
              "type": "string"
            },
            {
              "internalType": "string",
              "name": "display",
              "type": "string"
            }
          ],
          "internalType": "struct GeneralPractitioner",
          "name": "generalPractitioner",
          "type": "tuple"
        }
      ],
      "stateMutability": "view",
      "type": "function"
    },
    {
      "inputs": [
        {
          "internalType": "address",
          "name": "",
          "type": "address"
        }
      ],
      "name": "patientDataToAddress",
      "outputs": [
        {
          "components": [
            {
              "internalType": "string",
              "name": "code",
              "type": "string"
            },
            {
              "internalType": "string",
              "name": "display",
              "type": "string"
            },
            {
              "internalType": "string",
              "name": "system",
              "type": "string"
            }
          ],
          "internalType": "struct Code",
          "name": "identidadDeGenero",
          "type": "tuple"
        },
        {
          "components": [
            {
              "internalType": "string",
              "name": "code",
              "type": "string"
            },
            {
              "internalType": "string",
              "name": "display",
              "type": "string"
            },
            {
              "internalType": "string",
              "name": "definition",
              "type": "string"
            }
          ],
          "internalType": "struct Coding",
          "name": "sexoBiologico",
          "type": "tuple"
        },
        {
          "components": [
            {
              "internalType": "string",
              "name": "url",
              "type": "string"
            },
            {
              "components": [
                {
                  "components": [
                    {
                      "internalType": "string",
                      "name": "code",
                      "type": "string"
                    },
                    {
                      "internalType": "string",
                      "name": "display",
                      "type": "string"
                    },
                    {
                      "internalType": "string",
                      "name": "system",
                      "type": "string"
                    }
                  ],
                  "internalType": "struct Code",
                  "name": "coding",
                  "type": "tuple"
                }
              ],
              "internalType": "struct Value",
              "name": "Value",
              "type": "tuple"
            }
          ],
          "internalType": "struct Nacionalidad",
          "name": "nacionalidad",
          "type": "tuple"
        },
        {
          "components": [
            {
              "internalType": "string",
              "name": "use",
              "type": "string"
            },
            {
              "components": [
                {
                  "components": [
                    {
                      "internalType": "string",
                      "name": "code",
                      "type": "string"
                    },
                    {
                      "internalType": "string",
                      "name": "display",
                      "type": "string"
                    },
                    {
                      "internalType": "string",
                      "name": "definition",
                      "type": "string"
                    }
                  ],
                  "internalType": "struct Coding",
                  "name": "paises",
                  "type": "tuple"
                },
                {
                  "components": [
                    {
                      "internalType": "string",
                      "name": "code",
                      "type": "string"
                    },
                    {
                      "internalType": "string",
                      "name": "display",
                      "type": "string"
                    },
                    {
                      "internalType": "string",
                      "name": "definition",
                      "type": "string"
                    }
                  ],
                  "internalType": "struct Coding",
                  "name": "coding",
                  "type": "tuple"
                }
              ],
              "internalType": "struct Type",
              "name": "paises",
              "type": "tuple"
            },
            {
              "internalType": "string",
              "name": "value",
              "type": "string"
            }
          ],
          "internalType": "struct Identifier",
          "name": "identifier",
          "type": "tuple"
        },
        {
          "components": [
            {
              "internalType": "string",
              "name": "use",
              "type": "string"
            },
            {
              "components": [
                {
                  "internalType": "string",
                  "name": "segundoApellido",
                  "type": "string"
                }
              ],
              "internalType": "struct Family",
              "name": "family",
              "type": "tuple"
            },
            {
              "internalType": "string",
              "name": "given",
              "type": "string"
            }
          ],
          "internalType": "struct NombreOficial",
          "name": "nombreOficial",
          "type": "tuple"
        },
        {
          "components": [
            {
              "internalType": "string",
              "name": "use",
              "type": "string"
            },
            {
              "internalType": "string",
              "name": "given",
              "type": "string"
            }
          ],
          "internalType": "struct NombreSocial",
          "name": "nombreSocial",
          "type": "tuple"
        },
        {
          "components": [
            {
              "components": [
                {
                  "internalType": "string",
                  "name": "code",
                  "type": "string"
                },
                {
                  "internalType": "string",
                  "name": "display",
                  "type": "string"
                },
                {
                  "internalType": "string",
                  "name": "system",
                  "type": "string"
                }
              ],
              "internalType": "struct Code",
              "name": "system",
              "type": "tuple"
            },
            {
              "internalType": "string",
              "name": "value",
              "type": "string"
            },
            {
              "components": [
                {
                  "internalType": "string",
                  "name": "code",
                  "type": "string"
                },
                {
                  "internalType": "string",
                  "name": "display",
                  "type": "string"
                },
                {
                  "internalType": "string",
                  "name": "system",
                  "type": "string"
                }
              ],
              "internalType": "struct Code",
              "name": "use",
              "type": "tuple"
            }
          ],
          "internalType": "struct Telecom",
          "name": "telecom",
          "type": "tuple"
        },
        {
          "internalType": "string",
          "name": "birthDate",
          "type": "string"
        },
        {
          "components": [
            {
              "components": [
                {
                  "internalType": "string",
                  "name": "code",
                  "type": "string"
                },
                {
                  "internalType": "string",
                  "name": "display",
                  "type": "string"
                },
                {
                  "internalType": "string",
                  "name": "system",
                  "type": "string"
                }
              ],
              "internalType": "struct Code",
              "name": "country",
              "type": "tuple"
            },
            {
              "internalType": "string",
              "name": "city",
              "type": "string"
            },
            {
              "internalType": "string",
              "name": "street",
              "type": "string"
            },
            {
              "internalType": "string",
              "name": "postalCode",
              "type": "string"
            },
            {
              "internalType": "string",
              "name": "number",
              "type": "string"
            }
          ],
          "internalType": "struct PatientAddress",
          "name": "patientAddress",
          "type": "tuple"
        },
        {
          "components": [
            {
              "internalType": "string",
              "name": "IdContacto",
              "type": "string"
            },
            {
              "components": [
                {
                  "internalType": "string",
                  "name": "code",
                  "type": "string"
                },
                {
                  "internalType": "string",
                  "name": "display",
                  "type": "string"
                },
                {
                  "internalType": "string",
                  "name": "definition",
                  "type": "string"
                }
              ],
              "internalType": "struct Coding",
              "name": "relationship",
              "type": "tuple"
            },
            {
              "components": [
                {
                  "internalType": "string",
                  "name": "use",
                  "type": "string"
                },
                {
                  "components": [
                    {
                      "internalType": "string",
                      "name": "segundoApellido",
                      "type": "string"
                    }
                  ],
                  "internalType": "struct Family",
                  "name": "family",
                  "type": "tuple"
                },
                {
                  "internalType": "string",
                  "name": "given",
                  "type": "string"
                }
              ],
              "internalType": "struct Name",
              "name": "name",
              "type": "tuple"
            }
          ],
          "internalType": "struct Contact",
          "name": "contact",
          "type": "tuple"
        },
        {
          "components": [
            {
              "components": [
                {
                  "components": [
                    {
                      "internalType": "string",
                      "name": "code",
                      "type": "string"
                    },
                    {
                      "internalType": "string",
                      "name": "display",
                      "type": "string"
                    },
                    {
                      "internalType": "string",
                      "name": "definition",
                      "type": "string"
                    }
                  ],
                  "internalType": "struct Coding",
                  "name": "coding",
                  "type": "tuple"
                }
              ],
              "internalType": "struct Lenguage",
              "name": "lenguage",
              "type": "tuple"
            }
          ],
          "internalType": "struct Communication",
          "name": "communication",
          "type": "tuple"
        },
        {
          "components": [
            {
              "internalType": "string",
              "name": "id",
              "type": "string"
            },
            {
              "internalType": "string",
              "name": "Reference",
              "type": "string"
            },
            {
              "internalType": "string",
              "name": "display",
              "type": "string"
            }
          ],
          "internalType": "struct GeneralPractitioner",
          "name": "generalPractitioner",
          "type": "tuple"
        }
      ],
      "stateMutability": "view",
      "type": "function"
    },
    {
      "inputs": [
        {
          "components": [
            {
              "components": [
                {
                  "internalType": "string",
                  "name": "code",
                  "type": "string"
                },
                {
                  "internalType": "string",
                  "name": "display",
                  "type": "string"
                },
                {
                  "internalType": "string",
                  "name": "system",
                  "type": "string"
                }
              ],
              "internalType": "struct Code",
              "name": "identidadDeGenero",
              "type": "tuple"
            },
            {
              "components": [
                {
                  "internalType": "string",
                  "name": "code",
                  "type": "string"
                },
                {
                  "internalType": "string",
                  "name": "display",
                  "type": "string"
                },
                {
                  "internalType": "string",
                  "name": "definition",
                  "type": "string"
                }
              ],
              "internalType": "struct Coding",
              "name": "sexoBiologico",
              "type": "tuple"
            },
            {
              "components": [
                {
                  "internalType": "string",
                  "name": "url",
                  "type": "string"
                },
                {
                  "components": [
                    {
                      "components": [
                        {
                          "internalType": "string",
                          "name": "code",
                          "type": "string"
                        },
                        {
                          "internalType": "string",
                          "name": "display",
                          "type": "string"
                        },
                        {
                          "internalType": "string",
                          "name": "system",
                          "type": "string"
                        }
                      ],
                      "internalType": "struct Code",
                      "name": "coding",
                      "type": "tuple"
                    }
                  ],
                  "internalType": "struct Value",
                  "name": "Value",
                  "type": "tuple"
                }
              ],
              "internalType": "struct Nacionalidad",
              "name": "nacionalidad",
              "type": "tuple"
            },
            {
              "components": [
                {
                  "internalType": "string",
                  "name": "use",
                  "type": "string"
                },
                {
                  "components": [
                    {
                      "components": [
                        {
                          "internalType": "string",
                          "name": "code",
                          "type": "string"
                        },
                        {
                          "internalType": "string",
                          "name": "display",
                          "type": "string"
                        },
                        {
                          "internalType": "string",
                          "name": "definition",
                          "type": "string"
                        }
                      ],
                      "internalType": "struct Coding",
                      "name": "paises",
                      "type": "tuple"
                    },
                    {
                      "components": [
                        {
                          "internalType": "string",
                          "name": "code",
                          "type": "string"
                        },
                        {
                          "internalType": "string",
                          "name": "display",
                          "type": "string"
                        },
                        {
                          "internalType": "string",
                          "name": "definition",
                          "type": "string"
                        }
                      ],
                      "internalType": "struct Coding",
                      "name": "coding",
                      "type": "tuple"
                    }
                  ],
                  "internalType": "struct Type",
                  "name": "paises",
                  "type": "tuple"
                },
                {
                  "internalType": "string",
                  "name": "value",
                  "type": "string"
                }
              ],
              "internalType": "struct Identifier",
              "name": "identifier",
              "type": "tuple"
            },
            {
              "components": [
                {
                  "internalType": "string",
                  "name": "use",
                  "type": "string"
                },
                {
                  "components": [
                    {
                      "internalType": "string",
                      "name": "segundoApellido",
                      "type": "string"
                    }
                  ],
                  "internalType": "struct Family",
                  "name": "family",
                  "type": "tuple"
                },
                {
                  "internalType": "string",
                  "name": "given",
                  "type": "string"
                }
              ],
              "internalType": "struct NombreOficial",
              "name": "nombreOficial",
              "type": "tuple"
            },
            {
              "components": [
                {
                  "internalType": "string",
                  "name": "use",
                  "type": "string"
                },
                {
                  "internalType": "string",
                  "name": "given",
                  "type": "string"
                }
              ],
              "internalType": "struct NombreSocial",
              "name": "nombreSocial",
              "type": "tuple"
            },
            {
              "components": [
                {
                  "components": [
                    {
                      "internalType": "string",
                      "name": "code",
                      "type": "string"
                    },
                    {
                      "internalType": "string",
                      "name": "display",
                      "type": "string"
                    },
                    {
                      "internalType": "string",
                      "name": "system",
                      "type": "string"
                    }
                  ],
                  "internalType": "struct Code",
                  "name": "system",
                  "type": "tuple"
                },
                {
                  "internalType": "string",
                  "name": "value",
                  "type": "string"
                },
                {
                  "components": [
                    {
                      "internalType": "string",
                      "name": "code",
                      "type": "string"
                    },
                    {
                      "internalType": "string",
                      "name": "display",
                      "type": "string"
                    },
                    {
                      "internalType": "string",
                      "name": "system",
                      "type": "string"
                    }
                  ],
                  "internalType": "struct Code",
                  "name": "use",
                  "type": "tuple"
                }
              ],
              "internalType": "struct Telecom",
              "name": "telecom",
              "type": "tuple"
            },
            {
              "internalType": "string",
              "name": "birthDate",
              "type": "string"
            },
            {
              "components": [
                {
                  "components": [
                    {
                      "internalType": "string",
                      "name": "code",
                      "type": "string"
                    },
                    {
                      "internalType": "string",
                      "name": "display",
                      "type": "string"
                    },
                    {
                      "internalType": "string",
                      "name": "system",
                      "type": "string"
                    }
                  ],
                  "internalType": "struct Code",
                  "name": "country",
                  "type": "tuple"
                },
                {
                  "internalType": "string",
                  "name": "city",
                  "type": "string"
                },
                {
                  "internalType": "string",
                  "name": "street",
                  "type": "string"
                },
                {
                  "internalType": "string",
                  "name": "postalCode",
                  "type": "string"
                },
                {
                  "internalType": "string",
                  "name": "number",
                  "type": "string"
                }
              ],
              "internalType": "struct PatientAddress",
              "name": "patientAddress",
              "type": "tuple"
            },
            {
              "components": [
                {
                  "internalType": "string",
                  "name": "IdContacto",
                  "type": "string"
                },
                {
                  "components": [
                    {
                      "internalType": "string",
                      "name": "code",
                      "type": "string"
                    },
                    {
                      "internalType": "string",
                      "name": "display",
                      "type": "string"
                    },
                    {
                      "internalType": "string",
                      "name": "definition",
                      "type": "string"
                    }
                  ],
                  "internalType": "struct Coding",
                  "name": "relationship",
                  "type": "tuple"
                },
                {
                  "components": [
                    {
                      "internalType": "string",
                      "name": "use",
                      "type": "string"
                    },
                    {
                      "components": [
                        {
                          "internalType": "string",
                          "name": "segundoApellido",
                          "type": "string"
                        }
                      ],
                      "internalType": "struct Family",
                      "name": "family",
                      "type": "tuple"
                    },
                    {
                      "internalType": "string",
                      "name": "given",
                      "type": "string"
                    }
                  ],
                  "internalType": "struct Name",
                  "name": "name",
                  "type": "tuple"
                }
              ],
              "internalType": "struct Contact",
              "name": "contact",
              "type": "tuple"
            },
            {
              "components": [
                {
                  "components": [
                    {
                      "components": [
                        {
                          "internalType": "string",
                          "name": "code",
                          "type": "string"
                        },
                        {
                          "internalType": "string",
                          "name": "display",
                          "type": "string"
                        },
                        {
                          "internalType": "string",
                          "name": "definition",
                          "type": "string"
                        }
                      ],
                      "internalType": "struct Coding",
                      "name": "coding",
                      "type": "tuple"
                    }
                  ],
                  "internalType": "struct Lenguage",
                  "name": "lenguage",
                  "type": "tuple"
                }
              ],
              "internalType": "struct Communication",
              "name": "communication",
              "type": "tuple"
            },
            {
              "components": [
                {
                  "internalType": "string",
                  "name": "id",
                  "type": "string"
                },
                {
                  "internalType": "string",
                  "name": "Reference",
                  "type": "string"
                },
                {
                  "internalType": "string",
                  "name": "display",
                  "type": "string"
                }
              ],
              "internalType": "struct GeneralPractitioner",
              "name": "generalPractitioner",
              "type": "tuple"
            }
          ],
          "internalType": "struct patientData",
          "name": "_patientData",
          "type": "tuple"
        }
      ],
      "name": "updatePatientData",
      "outputs": [],
      "stateMutability": "nonpayable",
      "type": "function"
    }
  ],
  "bytecode": "0x608060405234801561001057600080fd5b5061560c80620000216000396000f3fe608060405234801561001057600080fd5b50600436106100415760003560e01c8063404f636314610046578063b6bde12814610062578063d842abab1461009d575b600080fd5b610060600480360381019061005b9190613f4d565b6100d8565b005b61007c60048036038101906100779190613ff4565b61012a565b6040516100949c9b9a999897969594939291906146b6565b60405180910390f35b6100b760048036038101906100b291906147fa565b61201c565b6040516100cf9c9b9a999897969594939291906146b6565b60405180910390f35b80600160003373ffffffffffffffffffffffffffffffffffffffff1673ffffffffffffffffffffffffffffffffffffffff168152602001908152602001600020818161012491906155c8565b90505050565b60016020528060005260406000206000915090508060000160405180606001604052908160008201805461015d9061492a565b80601f01602080910402602001604051908101604052809291908181526020018280546101899061492a565b80156101d65780601f106101ab576101008083540402835291602001916101d6565b820191906000526020600020905b8154815290600101906020018083116101b957829003601f168201915b505050505081526020016001820180546101ef9061492a565b80601f016020809104026020016040519081016040528092919081815260200182805461021b9061492a565b80156102685780601f1061023d57610100808354040283529160200191610268565b820191906000526020600020905b81548152906001019060200180831161024b57829003601f168201915b505050505081526020016002820180546102819061492a565b80601f01602080910402602001604051908101604052809291908181526020018280546102ad9061492a565b80156102fa5780601f106102cf576101008083540402835291602001916102fa565b820191906000526020600020905b8154815290600101906020018083116102dd57829003601f168201915b50505050508152505090806003016040518060600160405290816000820180546103239061492a565b80601f016020809104026020016040519081016040528092919081815260200182805461034f9061492a565b801561039c5780601f106103715761010080835404028352916020019161039c565b820191906000526020600020905b81548152906001019060200180831161037f57829003601f168201915b505050505081526020016001820180546103b59061492a565b80601f01602080910402602001604051908101604052809291908181526020018280546103e19061492a565b801561042e5780601f106104035761010080835404028352916020019161042e565b820191906000526020600020905b81548152906001019060200180831161041157829003601f168201915b505050505081526020016002820180546104479061492a565b80601f01602080910402602001604051908101604052809291908181526020018280546104739061492a565b80156104c05780601f10610495576101008083540402835291602001916104c0565b820191906000526020600020905b8154815290600101906020018083116104a357829003601f168201915b50505050508152505090806006016040518060400160405290816000820180546104e99061492a565b80601f01602080910402602001604051908101604052809291908181526020018280546105159061492a565b80156105625780601f1061053757610100808354040283529160200191610562565b820191906000526020600020905b81548152906001019060200180831161054557829003601f168201915b50505050508152602001600182016040518060200160405290816000820160405180606001604052908160008201805461059b9061492a565b80601f01602080910402602001604051908101604052809291908181526020018280546105c79061492a565b80156106145780601f106105e957610100808354040283529160200191610614565b820191906000526020600020905b8154815290600101906020018083116105f757829003601f168201915b5050505050815260200160018201805461062d9061492a565b80601f01602080910402602001604051908101604052809291908181526020018280546106599061492a565b80156106a65780601f1061067b576101008083540402835291602001916106a6565b820191906000526020600020905b81548152906001019060200180831161068957829003601f168201915b505050505081526020016002820180546106bf9061492a565b80601f01602080910402602001604051908101604052809291908181526020018280546106eb9061492a565b80156107385780601f1061070d57610100808354040283529160200191610738565b820191906000526020600020905b81548152906001019060200180831161071b57829003601f168201915b50505050508152505081525050815250509080600a016040518060600160405290816000820180546107699061492a565b80601f01602080910402602001604051908101604052809291908181526020018280546107959061492a565b80156107e25780601f106107b7576101008083540402835291602001916107e2565b820191906000526020600020905b8154815290600101906020018083116107c557829003601f168201915b50505050508152602001600182016040518060400160405290816000820160405180606001604052908160008201805461081b9061492a565b80601f01602080910402602001604051908101604052809291908181526020018280546108479061492a565b80156108945780601f1061086957610100808354040283529160200191610894565b820191906000526020600020905b81548152906001019060200180831161087757829003601f168201915b505050505081526020016001820180546108ad9061492a565b80601f01602080910402602001604051908101604052809291908181526020018280546108d99061492a565b80156109265780601f106108fb57610100808354040283529160200191610926565b820191906000526020600020905b81548152906001019060200180831161090957829003601f168201915b5050505050815260200160028201805461093f9061492a565b80601f016020809104026020016040519081016040528092919081815260200182805461096b9061492a565b80156109b85780601f1061098d576101008083540402835291602001916109b8565b820191906000526020600020905b81548152906001019060200180831161099b57829003601f168201915b5050505050815250508152602001600382016040518060600160405290816000820180546109e59061492a565b80601f0160208091040260200160405190810160405280929190818152602001828054610a119061492a565b8015610a5e5780601f10610a3357610100808354040283529160200191610a5e565b820191906000526020600020905b815481529060010190602001808311610a4157829003601f168201915b50505050508152602001600182018054610a779061492a565b80601f0160208091040260200160405190810160405280929190818152602001828054610aa39061492a565b8015610af05780601f10610ac557610100808354040283529160200191610af0565b820191906000526020600020905b815481529060010190602001808311610ad357829003601f168201915b50505050508152602001600282018054610b099061492a565b80601f0160208091040260200160405190810160405280929190818152602001828054610b359061492a565b8015610b825780601f10610b5757610100808354040283529160200191610b82565b820191906000526020600020905b815481529060010190602001808311610b6557829003601f168201915b505050505081525050815250508152602001600782018054610ba39061492a565b80601f0160208091040260200160405190810160405280929190818152602001828054610bcf9061492a565b8015610c1c5780601f10610bf157610100808354040283529160200191610c1c565b820191906000526020600020905b815481529060010190602001808311610bff57829003601f168201915b5050505050815250509080601201604051806060016040529081600082018054610c459061492a565b80601f0160208091040260200160405190810160405280929190818152602001828054610c719061492a565b8015610cbe5780601f10610c9357610100808354040283529160200191610cbe565b820191906000526020600020905b815481529060010190602001808311610ca157829003601f168201915b5050505050815260200160018201604051806020016040529081600082018054610ce79061492a565b80601f0160208091040260200160405190810160405280929190818152602001828054610d139061492a565b8015610d605780601f10610d3557610100808354040283529160200191610d60565b820191906000526020600020905b815481529060010190602001808311610d4357829003601f168201915b5050505050815250508152602001600282018054610d7d9061492a565b80601f0160208091040260200160405190810160405280929190818152602001828054610da99061492a565b8015610df65780601f10610dcb57610100808354040283529160200191610df6565b820191906000526020600020905b815481529060010190602001808311610dd957829003601f168201915b5050505050815250509080601501604051806040016040529081600082018054610e1f9061492a565b80601f0160208091040260200160405190810160405280929190818152602001828054610e4b9061492a565b8015610e985780601f10610e6d57610100808354040283529160200191610e98565b820191906000526020600020905b815481529060010190602001808311610e7b57829003601f168201915b50505050508152602001600182018054610eb19061492a565b80601f0160208091040260200160405190810160405280929190818152602001828054610edd9061492a565b8015610f2a5780601f10610eff57610100808354040283529160200191610f2a565b820191906000526020600020905b815481529060010190602001808311610f0d57829003601f168201915b505050505081525050908060170160405180606001604052908160008201604051806060016040529081600082018054610f639061492a565b80601f0160208091040260200160405190810160405280929190818152602001828054610f8f9061492a565b8015610fdc5780601f10610fb157610100808354040283529160200191610fdc565b820191906000526020600020905b815481529060010190602001808311610fbf57829003601f168201915b50505050508152602001600182018054610ff59061492a565b80601f01602080910402602001604051908101604052809291908181526020018280546110219061492a565b801561106e5780601f106110435761010080835404028352916020019161106e565b820191906000526020600020905b81548152906001019060200180831161105157829003601f168201915b505050505081526020016002820180546110879061492a565b80601f01602080910402602001604051908101604052809291908181526020018280546110b39061492a565b80156111005780601f106110d557610100808354040283529160200191611100565b820191906000526020600020905b8154815290600101906020018083116110e357829003601f168201915b505050505081525050815260200160038201805461111d9061492a565b80601f01602080910402602001604051908101604052809291908181526020018280546111499061492a565b80156111965780601f1061116b57610100808354040283529160200191611196565b820191906000526020600020905b81548152906001019060200180831161117957829003601f168201915b50505050508152602001600482016040518060600160405290816000820180546111bf9061492a565b80601f01602080910402602001604051908101604052809291908181526020018280546111eb9061492a565b80156112385780601f1061120d57610100808354040283529160200191611238565b820191906000526020600020905b81548152906001019060200180831161121b57829003601f168201915b505050505081526020016001820180546112519061492a565b80601f016020809104026020016040519081016040528092919081815260200182805461127d9061492a565b80156112ca5780601f1061129f576101008083540402835291602001916112ca565b820191906000526020600020905b8154815290600101906020018083116112ad57829003601f168201915b505050505081526020016002820180546112e39061492a565b80601f016020809104026020016040519081016040528092919081815260200182805461130f9061492a565b801561135c5780601f106113315761010080835404028352916020019161135c565b820191906000526020600020905b81548152906001019060200180831161133f57829003601f168201915b505050505081525050815250509080601e0180546113799061492a565b80601f01602080910402602001604051908101604052809291908181526020018280546113a59061492a565b80156113f25780601f106113c7576101008083540402835291602001916113f2565b820191906000526020600020905b8154815290600101906020018083116113d557829003601f168201915b50505050509080601f016040518060a0016040529081600082016040518060600160405290816000820180546114279061492a565b80601f01602080910402602001604051908101604052809291908181526020018280546114539061492a565b80156114a05780601f10611475576101008083540402835291602001916114a0565b820191906000526020600020905b81548152906001019060200180831161148357829003601f168201915b505050505081526020016001820180546114b99061492a565b80601f01602080910402602001604051908101604052809291908181526020018280546114e59061492a565b80156115325780601f1061150757610100808354040283529160200191611532565b820191906000526020600020905b81548152906001019060200180831161151557829003601f168201915b5050505050815260200160028201805461154b9061492a565b80601f01602080910402602001604051908101604052809291908181526020018280546115779061492a565b80156115c45780601f10611599576101008083540402835291602001916115c4565b820191906000526020600020905b8154815290600101906020018083116115a757829003601f168201915b50505050508152505081526020016003820180546115e19061492a565b80601f016020809104026020016040519081016040528092919081815260200182805461160d9061492a565b801561165a5780601f1061162f5761010080835404028352916020019161165a565b820191906000526020600020905b81548152906001019060200180831161163d57829003601f168201915b505050505081526020016004820180546116739061492a565b80601f016020809104026020016040519081016040528092919081815260200182805461169f9061492a565b80156116ec5780601f106116c1576101008083540402835291602001916116ec565b820191906000526020600020905b8154815290600101906020018083116116cf57829003601f168201915b505050505081526020016005820180546117059061492a565b80601f01602080910402602001604051908101604052809291908181526020018280546117319061492a565b801561177e5780601f106117535761010080835404028352916020019161177e565b820191906000526020600020905b81548152906001019060200180831161176157829003601f168201915b505050505081526020016006820180546117979061492a565b80601f01602080910402602001604051908101604052809291908181526020018280546117c39061492a565b80156118105780601f106117e557610100808354040283529160200191611810565b820191906000526020600020905b8154815290600101906020018083116117f357829003601f168201915b50505050508152505090806026016040518060600160405290816000820180546118399061492a565b80601f01602080910402602001604051908101604052809291908181526020018280546118659061492a565b80156118b25780601f10611887576101008083540402835291602001916118b2565b820191906000526020600020905b81548152906001019060200180831161189557829003601f168201915b50505050508152602001600182016040518060600160405290816000820180546118db9061492a565b80601f01602080910402602001604051908101604052809291908181526020018280546119079061492a565b80156119545780601f1061192957610100808354040283529160200191611954565b820191906000526020600020905b81548152906001019060200180831161193757829003601f168201915b5050505050815260200160018201805461196d9061492a565b80601f01602080910402602001604051908101604052809291908181526020018280546119999061492a565b80156119e65780601f106119bb576101008083540402835291602001916119e6565b820191906000526020600020905b8154815290600101906020018083116119c957829003601f168201915b505050505081526020016002820180546119ff9061492a565b80601f0160208091040260200160405190810160405280929190818152602001828054611a2b9061492a565b8015611a785780601f10611a4d57610100808354040283529160200191611a78565b820191906000526020600020905b815481529060010190602001808311611a5b57829003601f168201915b505050505081525050815260200160048201604051806060016040529081600082018054611aa59061492a565b80601f0160208091040260200160405190810160405280929190818152602001828054611ad19061492a565b8015611b1e5780601f10611af357610100808354040283529160200191611b1e565b820191906000526020600020905b815481529060010190602001808311611b0157829003601f168201915b5050505050815260200160018201604051806020016040529081600082018054611b479061492a565b80601f0160208091040260200160405190810160405280929190818152602001828054611b739061492a565b8015611bc05780601f10611b9557610100808354040283529160200191611bc0565b820191906000526020600020905b815481529060010190602001808311611ba357829003601f168201915b5050505050815250508152602001600282018054611bdd9061492a565b80601f0160208091040260200160405190810160405280929190818152602001828054611c099061492a565b8015611c565780601f10611c2b57610100808354040283529160200191611c56565b820191906000526020600020905b815481529060010190602001808311611c3957829003601f168201915b505050505081525050815250509080602d016040518060200160405290816000820160405180602001604052908160008201604051806060016040529081600082018054611ca39061492a565b80601f0160208091040260200160405190810160405280929190818152602001828054611ccf9061492a565b8015611d1c5780601f10611cf157610100808354040283529160200191611d1c565b820191906000526020600020905b815481529060010190602001808311611cff57829003601f168201915b50505050508152602001600182018054611d359061492a565b80601f0160208091040260200160405190810160405280929190818152602001828054611d619061492a565b8015611dae5780601f10611d8357610100808354040283529160200191611dae565b820191906000526020600020905b815481529060010190602001808311611d9157829003601f168201915b50505050508152602001600282018054611dc79061492a565b80601f0160208091040260200160405190810160405280929190818152602001828054611df39061492a565b8015611e405780601f10611e1557610100808354040283529160200191611e40565b820191906000526020600020905b815481529060010190602001808311611e2357829003601f168201915b50505050508152505081525050815250509080603001604051806060016040529081600082018054611e719061492a565b80601f0160208091040260200160405190810160405280929190818152602001828054611e9d9061492a565b8015611eea5780601f10611ebf57610100808354040283529160200191611eea565b820191906000526020600020905b815481529060010190602001808311611ecd57829003601f168201915b50505050508152602001600182018054611f039061492a565b80601f0160208091040260200160405190810160405280929190818152602001828054611f2f9061492a565b8015611f7c5780601f10611f5157610100808354040283529160200191611f7c565b820191906000526020600020905b815481529060010190602001808311611f5f57829003601f168201915b50505050508152602001600282018054611f959061492a565b80601f0160208091040260200160405190810160405280929190818152602001828054611fc19061492a565b801561200e5780601f10611fe35761010080835404028352916020019161200e565b820191906000526020600020905b815481529060010190602001808311611ff157829003601f168201915b50505050508152505090508c565b6000818154811061202c57600080fd5b90600052602060002090603302016000915090508060000160405180606001604052908160008201805461205f9061492a565b80601f016020809104026020016040519081016040528092919081815260200182805461208b9061492a565b80156120d85780601f106120ad576101008083540402835291602001916120d8565b820191906000526020600020905b8154815290600101906020018083116120bb57829003601f168201915b505050505081526020016001820180546120f19061492a565b80601f016020809104026020016040519081016040528092919081815260200182805461211d9061492a565b801561216a5780601f1061213f5761010080835404028352916020019161216a565b820191906000526020600020905b81548152906001019060200180831161214d57829003601f168201915b505050505081526020016002820180546121839061492a565b80601f01602080910402602001604051908101604052809291908181526020018280546121af9061492a565b80156121fc5780601f106121d1576101008083540402835291602001916121fc565b820191906000526020600020905b8154815290600101906020018083116121df57829003601f168201915b50505050508152505090806003016040518060600160405290816000820180546122259061492a565b80601f01602080910402602001604051908101604052809291908181526020018280546122519061492a565b801561229e5780601f106122735761010080835404028352916020019161229e565b820191906000526020600020905b81548152906001019060200180831161228157829003601f168201915b505050505081526020016001820180546122b79061492a565b80601f01602080910402602001604051908101604052809291908181526020018280546122e39061492a565b80156123305780601f1061230557610100808354040283529160200191612330565b820191906000526020600020905b81548152906001019060200180831161231357829003601f168201915b505050505081526020016002820180546123499061492a565b80601f01602080910402602001604051908101604052809291908181526020018280546123759061492a565b80156123c25780601f10612397576101008083540402835291602001916123c2565b820191906000526020600020905b8154815290600101906020018083116123a557829003601f168201915b50505050508152505090806006016040518060400160405290816000820180546123eb9061492a565b80601f01602080910402602001604051908101604052809291908181526020018280546124179061492a565b80156124645780601f1061243957610100808354040283529160200191612464565b820191906000526020600020905b81548152906001019060200180831161244757829003601f168201915b50505050508152602001600182016040518060200160405290816000820160405180606001604052908160008201805461249d9061492a565b80601f01602080910402602001604051908101604052809291908181526020018280546124c99061492a565b80156125165780601f106124eb57610100808354040283529160200191612516565b820191906000526020600020905b8154815290600101906020018083116124f957829003601f168201915b5050505050815260200160018201805461252f9061492a565b80601f016020809104026020016040519081016040528092919081815260200182805461255b9061492a565b80156125a85780601f1061257d576101008083540402835291602001916125a8565b820191906000526020600020905b81548152906001019060200180831161258b57829003601f168201915b505050505081526020016002820180546125c19061492a565b80601f01602080910402602001604051908101604052809291908181526020018280546125ed9061492a565b801561263a5780601f1061260f5761010080835404028352916020019161263a565b820191906000526020600020905b81548152906001019060200180831161261d57829003601f168201915b50505050508152505081525050815250509080600a0160405180606001604052908160008201805461266b9061492a565b80601f01602080910402602001604051908101604052809291908181526020018280546126979061492a565b80156126e45780601f106126b9576101008083540402835291602001916126e4565b820191906000526020600020905b8154815290600101906020018083116126c757829003601f168201915b50505050508152602001600182016040518060400160405290816000820160405180606001604052908160008201805461271d9061492a565b80601f01602080910402602001604051908101604052809291908181526020018280546127499061492a565b80156127965780601f1061276b57610100808354040283529160200191612796565b820191906000526020600020905b81548152906001019060200180831161277957829003601f168201915b505050505081526020016001820180546127af9061492a565b80601f01602080910402602001604051908101604052809291908181526020018280546127db9061492a565b80156128285780601f106127fd57610100808354040283529160200191612828565b820191906000526020600020905b81548152906001019060200180831161280b57829003601f168201915b505050505081526020016002820180546128419061492a565b80601f016020809104026020016040519081016040528092919081815260200182805461286d9061492a565b80156128ba5780601f1061288f576101008083540402835291602001916128ba565b820191906000526020600020905b81548152906001019060200180831161289d57829003601f168201915b5050505050815250508152602001600382016040518060600160405290816000820180546128e79061492a565b80601f01602080910402602001604051908101604052809291908181526020018280546129139061492a565b80156129605780601f1061293557610100808354040283529160200191612960565b820191906000526020600020905b81548152906001019060200180831161294357829003601f168201915b505050505081526020016001820180546129799061492a565b80601f01602080910402602001604051908101604052809291908181526020018280546129a59061492a565b80156129f25780601f106129c7576101008083540402835291602001916129f2565b820191906000526020600020905b8154815290600101906020018083116129d557829003601f168201915b50505050508152602001600282018054612a0b9061492a565b80601f0160208091040260200160405190810160405280929190818152602001828054612a379061492a565b8015612a845780601f10612a5957610100808354040283529160200191612a84565b820191906000526020600020905b815481529060010190602001808311612a6757829003601f168201915b505050505081525050815250508152602001600782018054612aa59061492a565b80601f0160208091040260200160405190810160405280929190818152602001828054612ad19061492a565b8015612b1e5780601f10612af357610100808354040283529160200191612b1e565b820191906000526020600020905b815481529060010190602001808311612b0157829003601f168201915b5050505050815250509080601201604051806060016040529081600082018054612b479061492a565b80601f0160208091040260200160405190810160405280929190818152602001828054612b739061492a565b8015612bc05780601f10612b9557610100808354040283529160200191612bc0565b820191906000526020600020905b815481529060010190602001808311612ba357829003601f168201915b5050505050815260200160018201604051806020016040529081600082018054612be99061492a565b80601f0160208091040260200160405190810160405280929190818152602001828054612c159061492a565b8015612c625780601f10612c3757610100808354040283529160200191612c62565b820191906000526020600020905b815481529060010190602001808311612c4557829003601f168201915b5050505050815250508152602001600282018054612c7f9061492a565b80601f0160208091040260200160405190810160405280929190818152602001828054612cab9061492a565b8015612cf85780601f10612ccd57610100808354040283529160200191612cf8565b820191906000526020600020905b815481529060010190602001808311612cdb57829003601f168201915b5050505050815250509080601501604051806040016040529081600082018054612d219061492a565b80601f0160208091040260200160405190810160405280929190818152602001828054612d4d9061492a565b8015612d9a5780601f10612d6f57610100808354040283529160200191612d9a565b820191906000526020600020905b815481529060010190602001808311612d7d57829003601f168201915b50505050508152602001600182018054612db39061492a565b80601f0160208091040260200160405190810160405280929190818152602001828054612ddf9061492a565b8015612e2c5780601f10612e0157610100808354040283529160200191612e2c565b820191906000526020600020905b815481529060010190602001808311612e0f57829003601f168201915b505050505081525050908060170160405180606001604052908160008201604051806060016040529081600082018054612e659061492a565b80601f0160208091040260200160405190810160405280929190818152602001828054612e919061492a565b8015612ede5780601f10612eb357610100808354040283529160200191612ede565b820191906000526020600020905b815481529060010190602001808311612ec157829003601f168201915b50505050508152602001600182018054612ef79061492a565b80601f0160208091040260200160405190810160405280929190818152602001828054612f239061492a565b8015612f705780601f10612f4557610100808354040283529160200191612f70565b820191906000526020600020905b815481529060010190602001808311612f5357829003601f168201915b50505050508152602001600282018054612f899061492a565b80601f0160208091040260200160405190810160405280929190818152602001828054612fb59061492a565b80156130025780601f10612fd757610100808354040283529160200191613002565b820191906000526020600020905b815481529060010190602001808311612fe557829003601f168201915b505050505081525050815260200160038201805461301f9061492a565b80601f016020809104026020016040519081016040528092919081815260200182805461304b9061492a565b80156130985780601f1061306d57610100808354040283529160200191613098565b820191906000526020600020905b81548152906001019060200180831161307b57829003601f168201915b50505050508152602001600482016040518060600160405290816000820180546130c19061492a565b80601f01602080910402602001604051908101604052809291908181526020018280546130ed9061492a565b801561313a5780601f1061310f5761010080835404028352916020019161313a565b820191906000526020600020905b81548152906001019060200180831161311d57829003601f168201915b505050505081526020016001820180546131539061492a565b80601f016020809104026020016040519081016040528092919081815260200182805461317f9061492a565b80156131cc5780601f106131a1576101008083540402835291602001916131cc565b820191906000526020600020905b8154815290600101906020018083116131af57829003601f168201915b505050505081526020016002820180546131e59061492a565b80601f01602080910402602001604051908101604052809291908181526020018280546132119061492a565b801561325e5780601f106132335761010080835404028352916020019161325e565b820191906000526020600020905b81548152906001019060200180831161324157829003601f168201915b505050505081525050815250509080601e01805461327b9061492a565b80601f01602080910402602001604051908101604052809291908181526020018280546132a79061492a565b80156132f45780601f106132c9576101008083540402835291602001916132f4565b820191906000526020600020905b8154815290600101906020018083116132d757829003601f168201915b50505050509080601f016040518060a0016040529081600082016040518060600160405290816000820180546133299061492a565b80601f01602080910402602001604051908101604052809291908181526020018280546133559061492a565b80156133a25780601f10613377576101008083540402835291602001916133a2565b820191906000526020600020905b81548152906001019060200180831161338557829003601f168201915b505050505081526020016001820180546133bb9061492a565b80601f01602080910402602001604051908101604052809291908181526020018280546133e79061492a565b80156134345780601f1061340957610100808354040283529160200191613434565b820191906000526020600020905b81548152906001019060200180831161341757829003601f168201915b5050505050815260200160028201805461344d9061492a565b80601f01602080910402602001604051908101604052809291908181526020018280546134799061492a565b80156134c65780601f1061349b576101008083540402835291602001916134c6565b820191906000526020600020905b8154815290600101906020018083116134a957829003601f168201915b50505050508152505081526020016003820180546134e39061492a565b80601f016020809104026020016040519081016040528092919081815260200182805461350f9061492a565b801561355c5780601f106135315761010080835404028352916020019161355c565b820191906000526020600020905b81548152906001019060200180831161353f57829003601f168201915b505050505081526020016004820180546135759061492a565b80601f01602080910402602001604051908101604052809291908181526020018280546135a19061492a565b80156135ee5780601f106135c3576101008083540402835291602001916135ee565b820191906000526020600020905b8154815290600101906020018083116135d157829003601f168201915b505050505081526020016005820180546136079061492a565b80601f01602080910402602001604051908101604052809291908181526020018280546136339061492a565b80156136805780601f1061365557610100808354040283529160200191613680565b820191906000526020600020905b81548152906001019060200180831161366357829003601f168201915b505050505081526020016006820180546136999061492a565b80601f01602080910402602001604051908101604052809291908181526020018280546136c59061492a565b80156137125780601f106136e757610100808354040283529160200191613712565b820191906000526020600020905b8154815290600101906020018083116136f557829003601f168201915b505050505081525050908060260160405180606001604052908160008201805461373b9061492a565b80601f01602080910402602001604051908101604052809291908181526020018280546137679061492a565b80156137b45780601f10613789576101008083540402835291602001916137b4565b820191906000526020600020905b81548152906001019060200180831161379757829003601f168201915b50505050508152602001600182016040518060600160405290816000820180546137dd9061492a565b80601f01602080910402602001604051908101604052809291908181526020018280546138099061492a565b80156138565780601f1061382b57610100808354040283529160200191613856565b820191906000526020600020905b81548152906001019060200180831161383957829003601f168201915b5050505050815260200160018201805461386f9061492a565b80601f016020809104026020016040519081016040528092919081815260200182805461389b9061492a565b80156138e85780601f106138bd576101008083540402835291602001916138e8565b820191906000526020600020905b8154815290600101906020018083116138cb57829003601f168201915b505050505081526020016002820180546139019061492a565b80601f016020809104026020016040519081016040528092919081815260200182805461392d9061492a565b801561397a5780601f1061394f5761010080835404028352916020019161397a565b820191906000526020600020905b81548152906001019060200180831161395d57829003601f168201915b5050505050815250508152602001600482016040518060600160405290816000820180546139a79061492a565b80601f01602080910402602001604051908101604052809291908181526020018280546139d39061492a565b8015613a205780601f106139f557610100808354040283529160200191613a20565b820191906000526020600020905b815481529060010190602001808311613a0357829003601f168201915b5050505050815260200160018201604051806020016040529081600082018054613a499061492a565b80601f0160208091040260200160405190810160405280929190818152602001828054613a759061492a565b8015613ac25780601f10613a9757610100808354040283529160200191613ac2565b820191906000526020600020905b815481529060010190602001808311613aa557829003601f168201915b5050505050815250508152602001600282018054613adf9061492a565b80601f0160208091040260200160405190810160405280929190818152602001828054613b0b9061492a565b8015613b585780601f10613b2d57610100808354040283529160200191613b58565b820191906000526020600020905b815481529060010190602001808311613b3b57829003601f168201915b505050505081525050815250509080602d016040518060200160405290816000820160405180602001604052908160008201604051806060016040529081600082018054613ba59061492a565b80601f0160208091040260200160405190810160405280929190818152602001828054613bd19061492a565b8015613c1e5780601f10613bf357610100808354040283529160200191613c1e565b820191906000526020600020905b815481529060010190602001808311613c0157829003601f168201915b50505050508152602001600182018054613c379061492a565b80601f0160208091040260200160405190810160405280929190818152602001828054613c639061492a565b8015613cb05780601f10613c8557610100808354040283529160200191613cb0565b820191906000526020600020905b815481529060010190602001808311613c9357829003601f168201915b50505050508152602001600282018054613cc99061492a565b80601f0160208091040260200160405190810160405280929190818152602001828054613cf59061492a565b8015613d425780601f10613d1757610100808354040283529160200191613d42565b820191906000526020600020905b815481529060010190602001808311613d2557829003601f168201915b50505050508152505081525050815250509080603001604051806060016040529081600082018054613d739061492a565b80601f0160208091040260200160405190810160405280929190818152602001828054613d9f9061492a565b8015613dec5780601f10613dc157610100808354040283529160200191613dec565b820191906000526020600020905b815481529060010190602001808311613dcf57829003601f168201915b50505050508152602001600182018054613e059061492a565b80601f0160208091040260200160405190810160405280929190818152602001828054613e319061492a565b8015613e7e5780601f10613e5357610100808354040283529160200191613e7e565b820191906000526020600020905b815481529060010190602001808311613e6157829003601f168201915b50505050508152602001600282018054613e979061492a565b80601f0160208091040260200160405190810160405280929190818152602001828054613ec39061492a565b8015613f105780601f10613ee557610100808354040283529160200191613f10565b820191906000526020600020905b815481529060010190602001808311613ef357829003601f168201915b50505050508152505090508c565b600080fd5b600080fd5b600080fd5b60006101808284031215613f4457613f43613f28565b5b81905092915050565b600060208284031215613f6357613f62613f1e565b5b600082013567ffffffffffffffff811115613f8157613f80613f23565b5b613f8d84828501613f2d565b91505092915050565b600073ffffffffffffffffffffffffffffffffffffffff82169050919050565b6000613fc182613f96565b9050919050565b613fd181613fb6565b8114613fdc57600080fd5b50565b600081359050613fee81613fc8565b92915050565b60006020828403121561400a57614009613f1e565b5b600061401884828501613fdf565b91505092915050565b600081519050919050565b600082825260208201905092915050565b60005b8381101561405b578082015181840152602081019050614040565b8381111561406a576000848401525b50505050565b6000601f19601f8301169050919050565b600061408c82614021565b614096818561402c565b93506140a681856020860161403d565b6140af81614070565b840191505092915050565b600060608301600083015184820360008601526140d78282614081565b915050602083015184820360208601526140f18282614081565b9150506040830151848203604086015261410b8282614081565b9150508091505092915050565b600060608301600083015184820360008601526141358282614081565b9150506020830151848203602086015261414f8282614081565b915050604083015184820360408601526141698282614081565b9150508091505092915050565b600060608301600083015184820360008601526141938282614081565b915050602083015184820360208601526141ad8282614081565b915050604083015184820360408601526141c78282614081565b9150508091505092915050565b600060208301600083015184820360008601526141f18282614176565b9150508091505092915050565b6000604083016000830151848203600086015261421b8282614081565b9150506020830151848203602086015261423582826141d4565b9150508091505092915050565b6000606083016000830151848203600086015261425f8282614081565b915050602083015184820360208601526142798282614081565b915050604083015184820360408601526142938282614081565b9150508091505092915050565b600060408301600083015184820360008601526142bd8282614242565b915050602083015184820360208601526142d78282614242565b9150508091505092915050565b600060608301600083015184820360008601526143018282614081565b9150506020830151848203602086015261431b82826142a0565b915050604083015184820360408601526143358282614081565b9150508091505092915050565b6000602083016000830151848203600086015261435f8282614081565b9150508091505092915050565b600060608301600083015184820360008601526143898282614081565b915050602083015184820360208601526143a38282614342565b915050604083015184820360408601526143bd8282614081565b9150508091505092915050565b600060408301600083015184820360008601526143e78282614081565b915050602083015184820360208601526144018282614081565b9150508091505092915050565b6000606083016000830151848203600086015261442b8282614176565b915050602083015184820360208601526144458282614081565b9150506040830151848203604086015261445f8282614176565b9150508091505092915050565b600082825260208201905092915050565b600061448882614021565b614492818561446c565b93506144a281856020860161403d565b6144ab81614070565b840191505092915050565b600060a08301600083015184820360008601526144d38282614176565b915050602083015184820360208601526144ed8282614081565b915050604083015184820360408601526145078282614081565b915050606083015184820360608601526145218282614081565b9150506080830151848203608086015261453b8282614081565b9150508091505092915050565b600060608301600083015184820360008601526145658282614081565b9150506020830151848203602086015261457f8282614342565b915050604083015184820360408601526145998282614081565b9150508091505092915050565b600060608301600083015184820360008601526145c38282614081565b915050602083015184820360208601526145dd8282614242565b915050604083015184820360408601526145f78282614548565b9150508091505092915050565b600060208301600083015184820360008601526146218282614242565b9150508091505092915050565b6000602083016000830151848203600086015261464b8282614604565b9150508091505092915050565b600060608301600083015184820360008601526146758282614081565b9150506020830151848203602086015261468f8282614081565b915050604083015184820360408601526146a98282614081565b9150508091505092915050565b60006101808201905081810360008301526146d1818f6140ba565b905081810360208301526146e5818e614118565b905081810360408301526146f9818d6141fe565b9050818103606083015261470d818c6142e4565b90508181036080830152614721818b61436c565b905081810360a0830152614735818a6143ca565b905081810360c0830152614749818961440e565b905081810360e083015261475d818861447d565b905081810361010083015261477281876144b6565b905081810361012083015261478781866145a6565b905081810361014083015261479c818561462e565b90508181036101608301526147b18184614658565b90509d9c50505050505050505050505050565b6000819050919050565b6147d7816147c4565b81146147e257600080fd5b50565b6000813590506147f4816147ce565b92915050565b6000602082840312156148105761480f613f1e565b5b600061481e848285016147e5565b91505092915050565b600080fd5b600080fd5b600080fd5b60008235600160600383360303811261485257614851614827565b5b80830191505092915050565b6000808335600160200384360303811261487b5761487a614827565b5b80840192508235915067ffffffffffffffff82111561489d5761489c61482c565b5b6020830192506001820236038313156148b9576148b8614831565b5b509250929050565b600082905092915050565b7f4e487b7100000000000000000000000000000000000000000000000000000000600052604160045260246000fd5b7f4e487b7100000000000000000000000000000000000000000000000000000000600052602260045260246000fd5b6000600282049050600182168061494257607f821691505b602082108103614955576149546148fb565b5b50919050565b60008190508160005260206000209050919050565b60006020601f8301049050919050565b600082821b905092915050565b6000600883026149bd7fffffffffffffffffffffffffffffffffffffffffffffffffffffffffffffffff82614980565b6149c78683614980565b95508019841693508086168417925050509392505050565b6000819050919050565b6000614a046149ff6149fa846147c4565b6149df565b6147c4565b9050919050565b6000819050919050565b614a1e836149e9565b614a32614a2a82614a0b565b84845461498d565b825550505050565b600090565b614a47614a3a565b614a52818484614a15565b505050565b5b81811015614a7657614a6b600082614a3f565b600181019050614a58565b5050565b601f821115614abb57614a8c8161495b565b614a9584614970565b81016020851015614aa4578190505b614ab8614ab085614970565b830182614a57565b50505b505050565b600082821c905092915050565b6000614ade60001984600802614ac0565b1980831691505092915050565b6000614af78383614acd565b9150826002028217905092915050565b614b1183836148c1565b67ffffffffffffffff811115614b2a57614b296148cc565b5b614b34825461492a565b614b3f828285614a7a565b6000601f831160018114614b6e5760008415614b5c578287013590505b614b668582614aeb565b865550614bce565b601f198416614b7c8661495b565b60005b82811015614ba457848901358255600182019150602085019450602081019050614b7f565b86831015614bc15784890135614bbd601f891682614acd565b8355505b6001600288020188555050505b50505050505050565b614be2838383614b07565b505050565b6000810160008301614bf9818561485e565b614c04818386614bd7565b505050506001810160208301614c1a818561485e565b614c25818386614bd7565b505050506002810160408301614c3b818561485e565b614c46818386614bd7565b505050505050565b614c588282614be7565b5050565b600082356001606003833603038112614c7857614c77614827565b5b80830191505092915050565b6000810160008301614c96818561485e565b614ca1818386614bd7565b505050506001810160208301614cb7818561485e565b614cc2818386614bd7565b505050506002810160408301614cd8818561485e565b614ce3818386614bd7565b505050505050565b614cf58282614c84565b5050565b600082356001604003833603038112614d1557614d14614827565b5b80830191505092915050565b600082356001602003833603038112614d3d57614d3c614827565b5b80830191505092915050565b6000810160008301614d5b8185614836565b614d658184614c4e565b5050505050565b614d768282614d49565b5050565b6000810160008301614d8c818561485e565b614d97818386614bd7565b505050506001810160208301614dad8185614d21565b614db78184614d6c565b5050505050565b614dc88282614d7a565b5050565b600082356001606003833603038112614de857614de7614827565b5b80830191505092915050565b600082356001604003833603038112614e1057614e0f614827565b5b80830191505092915050565b6000810160008301614e2e8185614c5c565b614e388184614ceb565b5050506003810160208301614e4d8185614c5c565b614e578184614ceb565b5050505050565b614e688282614e1c565b5050565b6000810160008301614e7e818561485e565b614e89818386614bd7565b505050506001810160208301614e9f8185614df4565b614ea98184614e5e565b5050506007810160408301614ebe818561485e565b614ec9818386614bd7565b505050505050565b614edb8282614e6c565b5050565b600082356001606003833603038112614efb57614efa614827565b5b80830191505092915050565b600082356001602003833603038112614f2357614f22614827565b5b80830191505092915050565b6000810160008301614f41818561485e565b614f4c818386614bd7565b505050505050565b614f5e8282614f2f565b5050565b6000810160008301614f74818561485e565b614f7f818386614bd7565b505050506001810160208301614f958185614f07565b614f9f8184614f54565b5050506002810160408301614fb4818561485e565b614fbf818386614bd7565b505050505050565b614fd18282614f62565b5050565b600082356001604003833603038112614ff157614ff0614827565b5b80830191505092915050565b600081016000830161500f818561485e565b61501a818386614bd7565b505050506001810160208301615030818561485e565b61503b818386614bd7565b505050505050565b61504d8282614ffd565b5050565b60008235600160600383360303811261506d5761506c614827565b5b80830191505092915050565b600081016000830161508b8185614836565b6150958184614c4e565b50505060038101602083016150aa818561485e565b6150b5818386614bd7565b5050505060048101604083016150cb8185614836565b6150d58184614c4e565b5050505050565b6150e68282615079565b5050565b60008235600160a00383360303811261510657615105614827565b5b80830191505092915050565b60008101600083016151248185614836565b61512e8184614c4e565b5050506003810160208301615143818561485e565b61514e818386614bd7565b505050506004810160408301615164818561485e565b61516f818386614bd7565b505050506005810160608301615185818561485e565b615190818386614bd7565b5050505060068101608083016151a6818561485e565b6151b1818386614bd7565b505050505050565b6151c38282615112565b5050565b6000823560016060038336030381126151e3576151e2614827565b5b80830191505092915050565b60008235600160600383360303811261520b5761520a614827565b5b80830191505092915050565b6000810160008301615229818561485e565b615234818386614bd7565b50505050600181016020830161524a8185614f07565b6152548184614f54565b5050506002810160408301615269818561485e565b615274818386614bd7565b505050505050565b6152868282615217565b5050565b600081016000830161529c818561485e565b6152a7818386614bd7565b5050505060018101602083016152bd8185614c5c565b6152c78184614ceb565b50505060048101604083016152dc81856151ef565b6152e6818461527c565b5050505050565b6152f7828261528a565b5050565b60008235600160200383360303811261531757615316614827565b5b80830191505092915050565b60008235600160200383360303811261533f5761533e614827565b5b80830191505092915050565b600081016000830161535d8185614c5c565b6153678184614ceb565b5050505050565b615378828261534b565b5050565b600081016000830161538e8185615323565b615398818461536e565b5050505050565b6153a9828261537c565b5050565b6000823560016060038336030381126153c9576153c8614827565b5b80830191505092915050565b60008101600083016153e7818561485e565b6153f2818386614bd7565b505050506001810160208301615408818561485e565b615413818386614bd7565b505050506002810160408301615429818561485e565b615434818386614bd7565b505050505050565b61544682826153d5565b5050565b600081016000830161545c8185614836565b6154668184614c4e565b505050600381016020830161547b8185614c5c565b6154858184614ceb565b505050600681016040830161549a8185614cf9565b6154a48184614dbe565b505050600a8101606083016154b98185614dcc565b6154c38184614ed1565b50505060128101608083016154d88185614edf565b6154e28184614fc7565b5050506015810160a083016154f78185614fd5565b6155018184615043565b5050506017810160c083016155168185615051565b61552081846150dc565b505050601e810160e08301615535818561485e565b615540818386614bd7565b50505050601f8101610100830161555781856150ea565b61556181846151b9565b50505060268101610120830161557781856151c7565b61558181846152ed565b505050602d8101610140830161559781856152fb565b6155a1818461539f565b5050506030810161016083016155b781856153ad565b6155c1818461543c565b5050505050565b6155d2828261544a565b505056fea2646970667358221220090f0dc9b080cc11041949a9ab14516bf4ba6a3cd8e2ee5c69d05aa46453342e64736f6c634300080d0033",
  "immutableReferences": {},
  "source": "// SPDX-License-Identifier: GPL-3.0\npragma solidity =0.8.13;\n\nstruct Code {\n    string code;\n    string display;\n    string system;\n}\n\nstruct Coding {\n    string code;\n    string display;\n    string definition;\n}\nstruct Value {\n    Code coding;\n}\nstruct Nacionalidad {\n    string url;\n    Value Value;\n}\nstruct Type {\n    Coding paises;\n    Coding coding;\n}\nstruct Identifier {\n    string use;\n    Type paises;\n    string value;\n}\n\nstruct Family {\n    string segundoApellido;\n}\n\nstruct NombreOficial {\n    string use;\n    Family family;\n    string given;\n}\n\nstruct NombreSocial {\n    string use;\n    string given;\n}\n\nstruct Telecom {\n    Code system;\n    string value;\n    Code use;\n}\n\nstruct PatientAddress {\n    Code country;\n    string city;\n    string street;\n    string postalCode;\n    string number;\n}\n\nstruct Name {\n    string use;\n    Family family;\n    string given;\n}\nstruct Contact {\n    string IdContacto;\n    Coding relationship;\n    Name name;\n}\n\nstruct Lenguage {\n    Coding coding;\n}\nstruct Communication {\n    Lenguage lenguage;\n}\n\nstruct GeneralPractitioner {\n    string id;\n    string Reference;\n    string display;\n}\n\nstruct patientData {\n    Code identidadDeGenero;\n    Coding sexoBiologico;\n    Nacionalidad nacionalidad;\n    Identifier identifier;\n    NombreOficial nombreOficial;\n    NombreSocial nombreSocial;\n    Telecom telecom;\n    string birthDate;\n    PatientAddress patientAddress;\n    Contact contact;\n    Communication communication;\n    GeneralPractitioner generalPractitioner;\n}\n\ncontract paciente {\n    patientData[] public pacientes;\n    mapping(address => patientData) public patientDataToAddress;\n    \n    function updatePatientData(patientData calldata _patientData) public {\n        patientDataToAddress[msg.sender] = _patientData;\n    }\n}\n ",
  "sourcePath": "/home/alonso/quickstart besu v2/contract/contracts/paciente.sol",
  "compiler": {
    "name": "solc",
    "version": "0.8.13+commit.abaa5c0e.Emscripten.clang"
  },
  "schemaVersion": "3.4.13",
  "updatedAt": "2024-03-13T03:57:57.952Z",
  "devdoc": {
    "kind": "dev",
    "methods": {},
    "version": 1
  },
  "userdoc": {
    "kind": "user",
    "methods": {},
    "version": 1
  }
}